{
  "address": "0x7E809625C85FBE43dB3d1C3a0cCf3449378aDd4F",
  "abi": [
    {
      "inputs": [
        {
          "internalType": "uint256",
          "name": "ticketValue",
          "type": "uint256"
        },
        {
          "internalType": "address",
          "name": "priceFeedAdress",
          "type": "address"
        }
      ],
      "stateMutability": "nonpayable",
      "type": "constructor"
    },
    {
      "inputs": [],
      "name": "Enter_Lottery",
      "outputs": [],
      "stateMutability": "payable",
      "type": "function"
    },
    {
      "inputs": [],
      "name": "ticketValuePrice",
      "outputs": [
        {
          "internalType": "uint256",
          "name": "",
          "type": "uint256"
        }
      ],
      "stateMutability": "view",
      "type": "function"
    }
  ],
  "transactionHash": "0x083a7f3d8f0f54650399969b71c4e9ead6e783ae5797a0edc6b6ce30d71401fb",
  "args": [
    "10",
    "0x694AA1769357215DE4FAC081bf1f309aDC325306"
  ],
  "numDeployments": 2,
  "solcInputHash": "b3786b2a519e840214c9f13b62c7c4d3",
  "bytecode": "0x60c060405234801561001057600080fd5b506040516102563803806102568339818101604052810190610032919061010e565b81608081815250508073ffffffffffffffffffffffffffffffffffffffff1660a08173ffffffffffffffffffffffffffffffffffffffff1681525050505061014e565b600080fd5b6000819050919050565b61008d8161007a565b811461009857600080fd5b50565b6000815190506100aa81610084565b92915050565b600073ffffffffffffffffffffffffffffffffffffffff82169050919050565b60006100db826100b0565b9050919050565b6100eb816100d0565b81146100f657600080fd5b50565b600081519050610108816100e2565b92915050565b6000806040838503121561012557610124610075565b5b60006101338582860161009b565b9250506020610144858286016100f9565b9150509250929050565b60805160a05160e961016d600039600050506000605d015260e96000f3fe60806040526004361060265760003560e01c806316ee2e7f14602b578063b95a12e1146051575b600080fd5b348015603657600080fd5b50603d6059565b60405160489190609a565b60405180910390f35b60576081565b005b60007f0000000000000000000000000000000000000000000000000000000000000000905090565b565b6000819050919050565b6094816083565b82525050565b600060208201905060ad6000830184608d565b9291505056fea2646970667358221220bf62db9653eed01e88c2d725daa7bff146a86e517e4fd1498edf011b7a235f1c64736f6c63430008130033",
  "devdoc": {
    "kind": "dev",
    "methods": {},
    "version": 1
  },
  "userdoc": {
    "kind": "user",
    "methods": {},
    "version": 1
  },
  "storageLayout": {
    "storage": [],
    "types": null
  }
}