{
  "address": "0xe79083974001Bd12d528ccB36107E91C30642BFE",
  "abi": [
    {
      "inputs": [
        {
          "internalType": "uint256",
          "name": "ticketValue",
          "type": "uint256"
        },
        {
          "internalType": "address",
          "name": "priceFeedAdress",
          "type": "address"
        },
        {
          "internalType": "int256",
          "name": "maxParticipationCount",
          "type": "int256"
        },
        {
          "internalType": "address",
          "name": "vrfConsumerBaseV2Address",
          "type": "address"
        },
        {
          "internalType": "uint64",
          "name": "subscriptionId",
          "type": "uint64"
        },
        {
          "internalType": "uint256",
          "name": "participantLimit",
          "type": "uint256"
        },
        {
          "internalType": "bytes32",
          "name": "hashKey",
          "type": "bytes32"
        },
        {
          "internalType": "uint16",
          "name": "noOfConfirmations",
          "type": "uint16"
        },
        {
          "internalType": "uint32",
          "name": "gasLimit",
          "type": "uint32"
        }
      ],
      "stateMutability": "nonpayable",
      "type": "constructor"
    },
    {
      "inputs": [],
      "name": "Doesnt__Match__Required__Eth",
      "type": "error"
    },
    {
      "inputs": [],
      "name": "Lottery__Currently__Not__Available",
      "type": "error"
    },
    {
      "inputs": [],
      "name": "Maximum__Contribution__Limits__Five__Try__In__Next__Session",
      "type": "error"
    },
    {
      "inputs": [
        {
          "internalType": "address",
          "name": "have",
          "type": "address"
        },
        {
          "internalType": "address",
          "name": "want",
          "type": "address"
        }
      ],
      "name": "OnlyCoordinatorCanFulfill",
      "type": "error"
    },
    {
      "inputs": [
        {
          "internalType": "address",
          "name": "winner",
          "type": "address"
        },
        {
          "internalType": "uint256",
          "name": "balance",
          "type": "uint256"
        }
      ],
      "name": "Transaction__Failed",
      "type": "error"
    },
    {
      "inputs": [
        {
          "internalType": "bool",
          "name": "status",
          "type": "bool"
        }
      ],
      "name": "Validatio__Error__Occured",
      "type": "error"
    },
    {
      "anonymous": false,
      "inputs": [
        {
          "indexed": true,
          "internalType": "address",
          "name": "participantAddress",
          "type": "address"
        }
      ],
      "name": "Evt__Participants__Name",
      "type": "event"
    },
    {
      "anonymous": false,
      "inputs": [
        {
          "indexed": true,
          "internalType": "address",
          "name": "winner",
          "type": "address"
        }
      ],
      "name": "Evt__RecentWinner",
      "type": "event"
    },
    {
      "anonymous": false,
      "inputs": [
        {
          "indexed": true,
          "internalType": "uint256",
          "name": "requestId",
          "type": "uint256"
        }
      ],
      "name": "Evt__RequestId",
      "type": "event"
    },
    {
      "stateMutability": "payable",
      "type": "fallback"
    },
    {
      "inputs": [
        {
          "internalType": "bytes",
          "name": "",
          "type": "bytes"
        }
      ],
      "name": "checkUpkeep",
      "outputs": [
        {
          "internalType": "bool",
          "name": "",
          "type": "bool"
        },
        {
          "internalType": "bytes",
          "name": "",
          "type": "bytes"
        }
      ],
      "stateMutability": "view",
      "type": "function"
    },
    {
      "inputs": [],
      "name": "checkUpkeepValidation",
      "outputs": [
        {
          "internalType": "bool",
          "name": "",
          "type": "bool"
        }
      ],
      "stateMutability": "view",
      "type": "function"
    },
    {
      "inputs": [],
      "name": "currentStatus",
      "outputs": [
        {
          "internalType": "enum Lottery.Status",
          "name": "",
          "type": "uint8"
        }
      ],
      "stateMutability": "view",
      "type": "function"
    },
    {
      "inputs": [],
      "name": "enter_Lottery",
      "outputs": [],
      "stateMutability": "payable",
      "type": "function"
    },
    {
      "inputs": [],
      "name": "getNumberOfParticipants",
      "outputs": [
        {
          "internalType": "uint256",
          "name": "",
          "type": "uint256"
        }
      ],
      "stateMutability": "view",
      "type": "function"
    },
    {
      "inputs": [],
      "name": "getParticipantDetails",
      "outputs": [
        {
          "components": [
            {
              "internalType": "uint256",
              "name": "value",
              "type": "uint256"
            },
            {
              "internalType": "int256",
              "name": "count",
              "type": "int256"
            }
          ],
          "internalType": "struct Lottery.valueHolderStruct",
          "name": "",
          "type": "tuple"
        }
      ],
      "stateMutability": "view",
      "type": "function"
    },
    {
      "inputs": [],
      "name": "getTicketValuePriceInEth",
      "outputs": [
        {
          "internalType": "uint256",
          "name": "",
          "type": "uint256"
        }
      ],
      "stateMutability": "view",
      "type": "function"
    },
    {
      "inputs": [],
      "name": "getTicketValuePriceInUSD",
      "outputs": [
        {
          "internalType": "uint256",
          "name": "",
          "type": "uint256"
        }
      ],
      "stateMutability": "view",
      "type": "function"
    },
    {
      "inputs": [
        {
          "internalType": "bytes",
          "name": "",
          "type": "bytes"
        }
      ],
      "name": "performUpkeep",
      "outputs": [],
      "stateMutability": "nonpayable",
      "type": "function"
    },
    {
      "inputs": [
        {
          "internalType": "uint256",
          "name": "requestId",
          "type": "uint256"
        },
        {
          "internalType": "uint256[]",
          "name": "randomWords",
          "type": "uint256[]"
        }
      ],
      "name": "rawFulfillRandomWords",
      "outputs": [],
      "stateMutability": "nonpayable",
      "type": "function"
    },
    {
      "stateMutability": "payable",
      "type": "receive"
    }
  ],
  "transactionHash": "0x3ebafd9c71cdd997dd92da1b8cb422090240cd91125bdbaaf80915150c819d72",
  "args": [
    "10",
    "0x694AA1769357215DE4FAC081bf1f309aDC325306",
    "5",
    "0x8103B0A8A00be2DDC778e6e7eaa21791Cd364625",
    "8275",
    "0",
    "0x474e34a077df58807dbe9c96d3c009b23b3c6d0cce433e59bbf5b34f823bc56c",
    "2",
    "1000000"
  ],
  "numDeployments": 12,
  "solcInputHash": "0edf08b23c0972c2fb776a91999bdacb",
  "bytecode": "0x60e060405260016003600e6101000a81548163ffffffff021916908363ffffffff1602179055503480156200003357600080fd5b5060405162001e1038038062001e108339818101604052810190620000599190620003ba565b858073ffffffffffffffffffffffffffffffffffffffff1660808173ffffffffffffffffffffffffffffffffffffffff1681525050508860a08181525050876000806101000a81548173ffffffffffffffffffffffffffffffffffffffff021916908373ffffffffffffffffffffffffffffffffffffffff1602179055508660068190555084600360006101000a81548167ffffffffffffffff021916908367ffffffffffffffff16021790555085600160006101000a81548173ffffffffffffffffffffffffffffffffffffffff021916908373ffffffffffffffffffffffffffffffffffffffff1602179055506000600760006101000a81548160ff0219169083600181111562000171576200017062000499565b5b021790555060006008819055508360c081815250508260028190555081600360086101000a81548161ffff021916908361ffff160217905550806003600a6101000a81548163ffffffff021916908363ffffffff160217905550505050505050505050620004c8565b600080fd5b6000819050919050565b620001f481620001df565b81146200020057600080fd5b50565b6000815190506200021481620001e9565b92915050565b600073ffffffffffffffffffffffffffffffffffffffff82169050919050565b600062000247826200021a565b9050919050565b62000259816200023a565b81146200026557600080fd5b50565b60008151905062000279816200024e565b92915050565b6000819050919050565b62000294816200027f565b8114620002a057600080fd5b50565b600081519050620002b48162000289565b92915050565b600067ffffffffffffffff82169050919050565b620002d981620002ba565b8114620002e557600080fd5b50565b600081519050620002f981620002ce565b92915050565b6000819050919050565b6200031481620002ff565b81146200032057600080fd5b50565b600081519050620003348162000309565b92915050565b600061ffff82169050919050565b62000353816200033a565b81146200035f57600080fd5b50565b600081519050620003738162000348565b92915050565b600063ffffffff82169050919050565b620003948162000379565b8114620003a057600080fd5b50565b600081519050620003b48162000389565b92915050565b60008060008060008060008060006101208a8c031215620003e057620003df620001da565b5b6000620003f08c828d0162000203565b9950506020620004038c828d0162000268565b9850506040620004168c828d01620002a3565b9750506060620004298c828d0162000268565b96505060806200043c8c828d01620002e8565b95505060a06200044f8c828d0162000203565b94505060c0620004628c828d0162000323565b93505060e0620004758c828d0162000362565b925050610100620004898c828d01620003a3565b9150509295985092959850929598565b7f4e487b7100000000000000000000000000000000000000000000000000000000600052602160045260246000fd5b60805160a05160c05161190a6200050660003960006108b201526000818161056a015261081301526000818161059e01526105f2015261190a6000f3fe6080604052600436106100955760003560e01c80636e0af28d116100595780636e0af28d1461017357806382acbc661461019e578063ac8894a9146101c9578063c80c28a2146101f4578063ef8a92351461021f576100a4565b806319aff32b146100ae5780631fe543e3146100d95780634585e33b1461010257806367f6c1161461012b5780636e04ff0d14610135576100a4565b366100a4576100a261024a565b005b6100ac61024a565b005b3480156100ba57600080fd5b506100c3610542565b6040516100d09190610e68565b60405180910390f35b3480156100e557600080fd5b5061010060048036038101906100fb919061101c565b61059c565b005b34801561010e57600080fd5b50610129600480360381019061012491906110d3565b61065c565b005b61013361024a565b005b34801561014157600080fd5b5061015c600480360381019061015791906110d3565b610804565b60405161016a9291906111ba565b60405180910390f35b34801561017f57600080fd5b5061018861080f565b6040516101959190610e68565b60405180910390f35b3480156101aa57600080fd5b506101b3610837565b6040516101c09190611241565b60405180910390f35b3480156101d557600080fd5b506101de6108a5565b6040516101eb919061125c565b60405180910390f35b34801561020057600080fd5b50610209610933565b6040516102169190610e68565b60405180910390f35b34801561022b57600080fd5b50610234610943565b60405161024191906112ee565b60405180910390f35b600654600460010160003373ffffffffffffffffffffffffffffffffffffffff1673ffffffffffffffffffffffffffffffffffffffff16815260200190815260200160002060010154126102ca576040517f4e46b52200000000000000000000000000000000000000000000000000000000815260040160405180910390fd5b6001808111156102dd576102dc611277565b5b600760009054906101000a900460ff1660018111156102ff576102fe611277565b5b03610336576040517f1997fa4400000000000000000000000000000000000000000000000000000000815260040160405180910390fd5b6000610340610542565b905080341461037b576040517febd6143a00000000000000000000000000000000000000000000000000000000815260040160405180910390fd5b6004600001339080600181540180825580915050600190039060005260206000200160009091909190916101000a81548173ffffffffffffffffffffffffffffffffffffffff021916908373ffffffffffffffffffffffffffffffffffffffff1602179055506000600460010160003373ffffffffffffffffffffffffffffffffffffffff1673ffffffffffffffffffffffffffffffffffffffff1681526020019081526020016000206001015490506000600460010160003373ffffffffffffffffffffffffffffffffffffffff1673ffffffffffffffffffffffffffffffffffffffff1681526020019081526020016000206000015490506040518060400160405280348361048c9190611338565b815260200160018461049e919061136c565b815250600460010160003373ffffffffffffffffffffffffffffffffffffffff1673ffffffffffffffffffffffffffffffffffffffff16815260200190815260200160002060008201518160000155602082015181600101559050503373ffffffffffffffffffffffffffffffffffffffff167fd1d599fd695dd76e337d7ab238d0373013f78c6b0ae571fa655e6598c6a9709460405160405180910390a2505050565b600061059760008054906101000a900473ffffffffffffffffffffffffffffffffffffffff167f000000000000000000000000000000000000000000000000000000000000000061095a90919063ffffffff16565b905090565b7f000000000000000000000000000000000000000000000000000000000000000073ffffffffffffffffffffffffffffffffffffffff163373ffffffffffffffffffffffffffffffffffffffff161461064e57337f00000000000000000000000000000000000000000000000000000000000000006040517f1cf993f40000000000000000000000000000000000000000000000000000000081526004016106459291906113f1565b60405180910390fd5b61065882826109a9565b5050565b60006106666108a5565b905080156107c2576001600760006101000a81548160ff0219169083600181111561069457610693611277565b5b02179055506000600160009054906101000a900473ffffffffffffffffffffffffffffffffffffffff1673ffffffffffffffffffffffffffffffffffffffff16635d3b1d30600254600360009054906101000a900467ffffffffffffffff16600360089054906101000a900461ffff166003600a9054906101000a900463ffffffff166003600e9054906101000a900463ffffffff166040518663ffffffff1660e01b815260040161074a959493929190611492565b6020604051808303816000875af1158015610769573d6000803e3d6000fd5b505050506040513d601f19601f8201168201806040525081019061078d91906114fa565b9050807ff01fb06dc49a153c8bc21e72e870b9d2ff1cdf906dbd78cb52ed6c4dce0b94c460405160405180910390a2506107ff565b806040517fa23143dd0000000000000000000000000000000000000000000000000000000081526004016107f6919061125c565b60405180910390fd5b505050565b600060609250929050565b60007f0000000000000000000000000000000000000000000000000000000000000000905090565b61083f610d8e565b600460010160003373ffffffffffffffffffffffffffffffffffffffff1673ffffffffffffffffffffffffffffffffffffffff16815260200190815260200160002060405180604001604052908160008201548152602001600182015481525050905090565b60008060004711905060007f000000000000000000000000000000000000000000000000000000000000000060046000018054905011905060008280156108e95750815b801561092857506000600181111561090457610903611277565b5b600760009054906101000a900460ff16600181111561092657610925611277565b5b145b905080935050505090565b6000600460000180549050905090565b6000600760009054906101000a900460ff16905090565b60008061096683610cfd565b90506000670de0b6b3a76400008561097e9190611527565b905081670de0b6b3a7640000826109959190611527565b61099f9190611598565b9250505092915050565b6000600460000180549050826000815181106109c8576109c76115c9565b5b60200260200101516109da91906115f8565b90506000600460000182815481106109f5576109f46115c9565b5b9060005260206000200160009054906101000a900473ffffffffffffffffffffffffffffffffffffffff1690506000600760006101000a81548160ff02191690836001811115610a4857610a47611277565b5b021790555060006064476002610a5e9190611598565b610a689190611527565b9050600047905060008373ffffffffffffffffffffffffffffffffffffffff168383610a949190611629565b604051610aa09061168e565b60006040518083038185875af1925050503d8060008114610add576040519150601f19603f3d011682016040523d82523d6000602084013e610ae2565b606091505b5050905080610b3557838383610af89190611629565b6040517fce96730b000000000000000000000000000000000000000000000000000000008152600401610b2c929190611702565b60405180910390fd5b60005b600460000180549050811015610c3857600060046000018281548110610b6157610b606115c9565b5b9060005260206000200160009054906101000a900473ffffffffffffffffffffffffffffffffffffffff1690506000600460010160008373ffffffffffffffffffffffffffffffffffffffff1673ffffffffffffffffffffffffffffffffffffffff168152602001908152602001600020600001819055506000600460010160008373ffffffffffffffffffffffffffffffffffffffff1673ffffffffffffffffffffffffffffffffffffffff16815260200190815260200160002060010181905550508080610c309061172b565b915050610b38565b50600067ffffffffffffffff811115610c5457610c53610ed9565b5b604051908082528060200260200182016040528015610c825781602001602082028036833780820191505090505b5060046000019080519060200190610c9b929190610da8565b506001600854610cab9190611338565b6008819055508373ffffffffffffffffffffffffffffffffffffffff167fab5517330b96d2c7c19a5a269c79770176b37d3ff9f7b3689e492a61c31c1ff760405160405180910390a250505050505050565b6000808273ffffffffffffffffffffffffffffffffffffffff1663feaf968c6040518163ffffffff1660e01b815260040160a060405180830381865afa158015610d4b573d6000803e3d6000fd5b505050506040513d601f19601f82011682018060405250810190610d6f91906117e1565b5050509150506402540be40081610d86919061185c565b915050919050565b604051806040016040528060008152602001600081525090565b828054828255906000526020600020908101928215610e21579160200282015b82811115610e205782518260006101000a81548173ffffffffffffffffffffffffffffffffffffffff021916908373ffffffffffffffffffffffffffffffffffffffff16021790555091602001919060010190610dc8565b5b509050610e2e9190610e32565b5090565b5b80821115610e4b576000816000905550600101610e33565b5090565b6000819050919050565b610e6281610e4f565b82525050565b6000602082019050610e7d6000830184610e59565b92915050565b6000604051905090565b600080fd5b600080fd5b610ea081610e4f565b8114610eab57600080fd5b50565b600081359050610ebd81610e97565b92915050565b600080fd5b6000601f19601f8301169050919050565b7f4e487b7100000000000000000000000000000000000000000000000000000000600052604160045260246000fd5b610f1182610ec8565b810181811067ffffffffffffffff82111715610f3057610f2f610ed9565b5b80604052505050565b6000610f43610e83565b9050610f4f8282610f08565b919050565b600067ffffffffffffffff821115610f6f57610f6e610ed9565b5b602082029050602081019050919050565b600080fd5b6000610f98610f9384610f54565b610f39565b90508083825260208201905060208402830185811115610fbb57610fba610f80565b5b835b81811015610fe45780610fd08882610eae565b845260208401935050602081019050610fbd565b5050509392505050565b600082601f83011261100357611002610ec3565b5b8135611013848260208601610f85565b91505092915050565b6000806040838503121561103357611032610e8d565b5b600061104185828601610eae565b925050602083013567ffffffffffffffff81111561106257611061610e92565b5b61106e85828601610fee565b9150509250929050565b600080fd5b60008083601f84011261109357611092610ec3565b5b8235905067ffffffffffffffff8111156110b0576110af611078565b5b6020830191508360018202830111156110cc576110cb610f80565b5b9250929050565b600080602083850312156110ea576110e9610e8d565b5b600083013567ffffffffffffffff81111561110857611107610e92565b5b6111148582860161107d565b92509250509250929050565b60008115159050919050565b61113581611120565b82525050565b600081519050919050565b600082825260208201905092915050565b60005b8381101561117557808201518184015260208101905061115a565b60008484015250505050565b600061118c8261113b565b6111968185611146565b93506111a6818560208601611157565b6111af81610ec8565b840191505092915050565b60006040820190506111cf600083018561112c565b81810360208301526111e18184611181565b90509392505050565b6111f381610e4f565b82525050565b6000819050919050565b61120c816111f9565b82525050565b60408201600082015161122860008501826111ea565b50602082015161123b6020850182611203565b50505050565b60006040820190506112566000830184611212565b92915050565b6000602082019050611271600083018461112c565b92915050565b7f4e487b7100000000000000000000000000000000000000000000000000000000600052602160045260246000fd5b600281106112b7576112b6611277565b5b50565b60008190506112c8826112a6565b919050565b60006112d8826112ba565b9050919050565b6112e8816112cd565b82525050565b600060208201905061130360008301846112df565b92915050565b7f4e487b7100000000000000000000000000000000000000000000000000000000600052601160045260246000fd5b600061134382610e4f565b915061134e83610e4f565b925082820190508082111561136657611365611309565b5b92915050565b6000611377826111f9565b9150611382836111f9565b9250828201905082811215600083121683821260008412151617156113aa576113a9611309565b5b92915050565b600073ffffffffffffffffffffffffffffffffffffffff82169050919050565b60006113db826113b0565b9050919050565b6113eb816113d0565b82525050565b600060408201905061140660008301856113e2565b61141360208301846113e2565b9392505050565b6000819050919050565b61142d8161141a565b82525050565b600067ffffffffffffffff82169050919050565b61145081611433565b82525050565b600061ffff82169050919050565b61146d81611456565b82525050565b600063ffffffff82169050919050565b61148c81611473565b82525050565b600060a0820190506114a76000830188611424565b6114b46020830187611447565b6114c16040830186611464565b6114ce6060830185611483565b6114db6080830184611483565b9695505050505050565b6000815190506114f481610e97565b92915050565b6000602082840312156115105761150f610e8d565b5b600061151e848285016114e5565b91505092915050565b600061153282610e4f565b915061153d83610e4f565b925082820261154b81610e4f565b9150828204841483151761156257611561611309565b5b5092915050565b7f4e487b7100000000000000000000000000000000000000000000000000000000600052601260045260246000fd5b60006115a382610e4f565b91506115ae83610e4f565b9250826115be576115bd611569565b5b828204905092915050565b7f4e487b7100000000000000000000000000000000000000000000000000000000600052603260045260246000fd5b600061160382610e4f565b915061160e83610e4f565b92508261161e5761161d611569565b5b828206905092915050565b600061163482610e4f565b915061163f83610e4f565b925082820390508181111561165757611656611309565b5b92915050565b600081905092915050565b50565b600061167860008361165d565b915061168382611668565b600082019050919050565b60006116998261166b565b9150819050919050565b6000819050919050565b60006116c86116c36116be846113b0565b6116a3565b6113b0565b9050919050565b60006116da826116ad565b9050919050565b60006116ec826116cf565b9050919050565b6116fc816116e1565b82525050565b600060408201905061171760008301856116f3565b6117246020830184610e59565b9392505050565b600061173682610e4f565b91507fffffffffffffffffffffffffffffffffffffffffffffffffffffffffffffffff820361176857611767611309565b5b600182019050919050565b600069ffffffffffffffffffff82169050919050565b61179281611773565b811461179d57600080fd5b50565b6000815190506117af81611789565b92915050565b6117be816111f9565b81146117c957600080fd5b50565b6000815190506117db816117b5565b92915050565b600080600080600060a086880312156117fd576117fc610e8d565b5b600061180b888289016117a0565b955050602061181c888289016117cc565b945050604061182d888289016114e5565b935050606061183e888289016114e5565b925050608061184f888289016117a0565b9150509295509295909350565b6000611867826111f9565b9150611872836111f9565b9250828202611880816111f9565b91507f800000000000000000000000000000000000000000000000000000000000000084146000841216156118b8576118b7611309565b5b82820584148315176118cd576118cc611309565b5b509291505056fea2646970667358221220f7defef7413a992e71a0bcbfc581cc0163620a53ed0c580bb72321fcac33d0b264736f6c63430008130033",
  "devdoc": {
    "kind": "dev",
    "methods": {},
    "version": 1
  },
  "userdoc": {
    "kind": "user",
    "methods": {},
    "version": 1
  },
  "storageLayout": {
    "storage": [
      {
        "astId": 307,
        "contract": "contracts/Lottery.sol:Lottery",
        "label": "i_priceFeed",
        "offset": 0,
        "slot": "0",
        "type": "t_contract(AggregatorV3Interface)103"
      },
      {
        "astId": 310,
        "contract": "contracts/Lottery.sol:Lottery",
        "label": "COORDINATOR",
        "offset": 0,
        "slot": "1",
        "type": "t_contract(VRFCoordinatorV2Interface)199"
      },
      {
        "astId": 312,
        "contract": "contracts/Lottery.sol:Lottery",
        "label": "i_keyHash",
        "offset": 0,
        "slot": "2",
        "type": "t_bytes32"
      },
      {
        "astId": 314,
        "contract": "contracts/Lottery.sol:Lottery",
        "label": "s_subscriptionId",
        "offset": 0,
        "slot": "3",
        "type": "t_uint64"
      },
      {
        "astId": 316,
        "contract": "contracts/Lottery.sol:Lottery",
        "label": "i_requestConfirmations",
        "offset": 8,
        "slot": "3",
        "type": "t_uint16"
      },
      {
        "astId": 318,
        "contract": "contracts/Lottery.sol:Lottery",
        "label": "i_callbackGasLimit",
        "offset": 10,
        "slot": "3",
        "type": "t_uint32"
      },
      {
        "astId": 321,
        "contract": "contracts/Lottery.sol:Lottery",
        "label": "NUM_WORDS",
        "offset": 14,
        "slot": "3",
        "type": "t_uint32"
      },
      {
        "astId": 328,
        "contract": "contracts/Lottery.sol:Lottery",
        "label": "s_participants",
        "offset": 0,
        "slot": "4",
        "type": "t_struct(MapStruct)301_storage"
      },
      {
        "astId": 330,
        "contract": "contracts/Lottery.sol:Lottery",
        "label": "s_Max_Participation_Count",
        "offset": 0,
        "slot": "6",
        "type": "t_int256"
      },
      {
        "astId": 333,
        "contract": "contracts/Lottery.sol:Lottery",
        "label": "s_lottery_status",
        "offset": 0,
        "slot": "7",
        "type": "t_enum(Status)304"
      },
      {
        "astId": 335,
        "contract": "contracts/Lottery.sol:Lottery",
        "label": "noOfWinners",
        "offset": 0,
        "slot": "8",
        "type": "t_uint256"
      }
    ],
    "types": {
      "t_address": {
        "encoding": "inplace",
        "label": "address",
        "numberOfBytes": "20"
      },
      "t_address_payable": {
        "encoding": "inplace",
        "label": "address payable",
        "numberOfBytes": "20"
      },
      "t_array(t_address_payable)dyn_storage": {
        "base": "t_address_payable",
        "encoding": "dynamic_array",
        "label": "address payable[]",
        "numberOfBytes": "32"
      },
      "t_bytes32": {
        "encoding": "inplace",
        "label": "bytes32",
        "numberOfBytes": "32"
      },
      "t_contract(AggregatorV3Interface)103": {
        "encoding": "inplace",
        "label": "contract AggregatorV3Interface",
        "numberOfBytes": "20"
      },
      "t_contract(VRFCoordinatorV2Interface)199": {
        "encoding": "inplace",
        "label": "contract VRFCoordinatorV2Interface",
        "numberOfBytes": "20"
      },
      "t_enum(Status)304": {
        "encoding": "inplace",
        "label": "enum Lottery.Status",
        "numberOfBytes": "1"
      },
      "t_int256": {
        "encoding": "inplace",
        "label": "int256",
        "numberOfBytes": "32"
      },
      "t_mapping(t_address,t_struct(valueHolderStruct)292_storage)": {
        "encoding": "mapping",
        "key": "t_address",
        "label": "mapping(address => struct Lottery.valueHolderStruct)",
        "numberOfBytes": "32",
        "value": "t_struct(valueHolderStruct)292_storage"
      },
      "t_struct(MapStruct)301_storage": {
        "encoding": "inplace",
        "label": "struct Lottery.MapStruct",
        "members": [
          {
            "astId": 295,
            "contract": "contracts/Lottery.sol:Lottery",
            "label": "arrAddress",
            "offset": 0,
            "slot": "0",
            "type": "t_array(t_address_payable)dyn_storage"
          },
          {
            "astId": 300,
            "contract": "contracts/Lottery.sol:Lottery",
            "label": "mapAddress",
            "offset": 0,
            "slot": "1",
            "type": "t_mapping(t_address,t_struct(valueHolderStruct)292_storage)"
          }
        ],
        "numberOfBytes": "64"
      },
      "t_struct(valueHolderStruct)292_storage": {
        "encoding": "inplace",
        "label": "struct Lottery.valueHolderStruct",
        "members": [
          {
            "astId": 289,
            "contract": "contracts/Lottery.sol:Lottery",
            "label": "value",
            "offset": 0,
            "slot": "0",
            "type": "t_uint256"
          },
          {
            "astId": 291,
            "contract": "contracts/Lottery.sol:Lottery",
            "label": "count",
            "offset": 0,
            "slot": "1",
            "type": "t_int256"
          }
        ],
        "numberOfBytes": "64"
      },
      "t_uint16": {
        "encoding": "inplace",
        "label": "uint16",
        "numberOfBytes": "2"
      },
      "t_uint256": {
        "encoding": "inplace",
        "label": "uint256",
        "numberOfBytes": "32"
      },
      "t_uint32": {
        "encoding": "inplace",
        "label": "uint32",
        "numberOfBytes": "4"
      },
      "t_uint64": {
        "encoding": "inplace",
        "label": "uint64",
        "numberOfBytes": "8"
      }
    }
  }
}