{
  "address": "0x5c65B151EC159A6266f764A68131f32b49e3769B",
  "abi": [
    {
      "inputs": [
        {
          "internalType": "uint256",
          "name": "ticketValue",
          "type": "uint256"
        },
        {
          "internalType": "address",
          "name": "priceFeedAdress",
          "type": "address"
        },
        {
          "internalType": "int256",
          "name": "maxParticipationCount",
          "type": "int256"
        },
        {
          "internalType": "address",
          "name": "vrfConsumerBaseV2Address",
          "type": "address"
        },
        {
          "internalType": "uint64",
          "name": "subscriptionId",
          "type": "uint64"
        },
        {
          "internalType": "uint256",
          "name": "participantLimit",
          "type": "uint256"
        },
        {
          "internalType": "uint256",
          "name": "timeInterval",
          "type": "uint256"
        },
        {
          "internalType": "bytes32",
          "name": "hashKey",
          "type": "bytes32"
        },
        {
          "internalType": "uint16",
          "name": "noOfConfirmations",
          "type": "uint16"
        },
        {
          "internalType": "uint32",
          "name": "gasLimit",
          "type": "uint32"
        }
      ],
      "stateMutability": "nonpayable",
      "type": "constructor"
    },
    {
      "inputs": [],
      "name": "Doesnt__Match__Required__Eth",
      "type": "error"
    },
    {
      "inputs": [],
      "name": "Lottery__Currently__Not__Available",
      "type": "error"
    },
    {
      "inputs": [],
      "name": "Maximum__Contribution__Limits__Five__Try__In__Next__Session",
      "type": "error"
    },
    {
      "inputs": [
        {
          "internalType": "address",
          "name": "have",
          "type": "address"
        },
        {
          "internalType": "address",
          "name": "want",
          "type": "address"
        }
      ],
      "name": "OnlyCoordinatorCanFulfill",
      "type": "error"
    },
    {
      "inputs": [
        {
          "internalType": "address",
          "name": "winner",
          "type": "address"
        },
        {
          "internalType": "uint256",
          "name": "balance",
          "type": "uint256"
        }
      ],
      "name": "Transaction__Failed",
      "type": "error"
    },
    {
      "anonymous": false,
      "inputs": [
        {
          "indexed": true,
          "internalType": "address",
          "name": "participantAddress",
          "type": "address"
        }
      ],
      "name": "Evt__Participants__Name",
      "type": "event"
    },
    {
      "anonymous": false,
      "inputs": [
        {
          "indexed": true,
          "internalType": "address",
          "name": "winner",
          "type": "address"
        }
      ],
      "name": "Evt__RecentWinner",
      "type": "event"
    },
    {
      "anonymous": false,
      "inputs": [
        {
          "indexed": true,
          "internalType": "uint256",
          "name": "requestId",
          "type": "uint256"
        }
      ],
      "name": "Evt__RequestId",
      "type": "event"
    },
    {
      "stateMutability": "payable",
      "type": "fallback"
    },
    {
      "inputs": [
        {
          "internalType": "uint256",
          "name": "weiValue",
          "type": "uint256"
        }
      ],
      "name": "calculateEthtoUSD",
      "outputs": [
        {
          "internalType": "uint256",
          "name": "",
          "type": "uint256"
        }
      ],
      "stateMutability": "view",
      "type": "function"
    },
    {
      "inputs": [
        {
          "internalType": "bytes",
          "name": "",
          "type": "bytes"
        }
      ],
      "name": "checkUpkeep",
      "outputs": [
        {
          "internalType": "bool",
          "name": "upkeepNeeded",
          "type": "bool"
        },
        {
          "internalType": "bytes",
          "name": "",
          "type": "bytes"
        }
      ],
      "stateMutability": "view",
      "type": "function"
    },
    {
      "inputs": [],
      "name": "currentStatus",
      "outputs": [
        {
          "internalType": "enum Lottery.Status",
          "name": "",
          "type": "uint8"
        }
      ],
      "stateMutability": "view",
      "type": "function"
    },
    {
      "inputs": [],
      "name": "enter_Lottery",
      "outputs": [],
      "stateMutability": "payable",
      "type": "function"
    },
    {
      "inputs": [],
      "name": "getNumberOfParticipants",
      "outputs": [
        {
          "internalType": "uint256",
          "name": "",
          "type": "uint256"
        }
      ],
      "stateMutability": "view",
      "type": "function"
    },
    {
      "inputs": [],
      "name": "getParticipantDetails",
      "outputs": [
        {
          "components": [
            {
              "internalType": "uint256",
              "name": "value",
              "type": "uint256"
            },
            {
              "internalType": "int256",
              "name": "count",
              "type": "int256"
            }
          ],
          "internalType": "struct Lottery.valueHolderStruct",
          "name": "",
          "type": "tuple"
        }
      ],
      "stateMutability": "view",
      "type": "function"
    },
    {
      "inputs": [],
      "name": "getTicketValuePriceInEth",
      "outputs": [
        {
          "internalType": "uint256",
          "name": "",
          "type": "uint256"
        }
      ],
      "stateMutability": "view",
      "type": "function"
    },
    {
      "inputs": [],
      "name": "getTicketValuePriceInUSD",
      "outputs": [
        {
          "internalType": "uint256",
          "name": "",
          "type": "uint256"
        }
      ],
      "stateMutability": "view",
      "type": "function"
    },
    {
      "inputs": [
        {
          "internalType": "bytes",
          "name": "",
          "type": "bytes"
        }
      ],
      "name": "performUpkeep",
      "outputs": [],
      "stateMutability": "nonpayable",
      "type": "function"
    },
    {
      "inputs": [
        {
          "internalType": "uint256",
          "name": "requestId",
          "type": "uint256"
        },
        {
          "internalType": "uint256[]",
          "name": "randomWords",
          "type": "uint256[]"
        }
      ],
      "name": "rawFulfillRandomWords",
      "outputs": [],
      "stateMutability": "nonpayable",
      "type": "function"
    },
    {
      "stateMutability": "payable",
      "type": "receive"
    }
  ],
  "transactionHash": "0x154bb0910eb2a02d8405e9078f3ab7b885e554139461c96c150ba5e1b729fabb",
  "args": [
    "10",
    "0x694AA1769357215DE4FAC081bf1f309aDC325306",
    "5",
    "0x8103B0A8A00be2DDC778e6e7eaa21791Cd364625",
    "8275",
    "2",
    "60",
    "0x474e34a077df58807dbe9c96d3c009b23b3c6d0cce433e59bbf5b34f823bc56c",
    "2",
    "100000"
  ],
  "numDeployments": 3,
  "solcInputHash": "08bd695ea25b4849241474a712cc9d40",
  "bytecode": "0x6101a06040523480156200001257600080fd5b5060405162001f2838038062001f2883398181016040528101906200003891906200037b565b868073ffffffffffffffffffffffffffffffffffffffff1660808173ffffffffffffffffffffffffffffffffffffffff1681525050508961014081815250508873ffffffffffffffffffffffffffffffffffffffff1660a08173ffffffffffffffffffffffffffffffffffffffff168152505087600381905550856000806101000a81548167ffffffffffffffff021916908367ffffffffffffffff1602179055508673ffffffffffffffffffffffffffffffffffffffff1660c08173ffffffffffffffffffffffffffffffffffffffff16815250506000600460006101000a81548160ff0219169083600181111562000137576200013662000471565b5b02179055506000600581905550426006819055508461018081815250508361016081815250508260e081815250508161ffff166101008161ffff16815250508063ffffffff166101208163ffffffff168152505050505050505050505050620004a0565b600080fd5b6000819050919050565b620001b581620001a0565b8114620001c157600080fd5b50565b600081519050620001d581620001aa565b92915050565b600073ffffffffffffffffffffffffffffffffffffffff82169050919050565b60006200020882620001db565b9050919050565b6200021a81620001fb565b81146200022657600080fd5b50565b6000815190506200023a816200020f565b92915050565b6000819050919050565b620002558162000240565b81146200026157600080fd5b50565b60008151905062000275816200024a565b92915050565b600067ffffffffffffffff82169050919050565b6200029a816200027b565b8114620002a657600080fd5b50565b600081519050620002ba816200028f565b92915050565b6000819050919050565b620002d581620002c0565b8114620002e157600080fd5b50565b600081519050620002f581620002ca565b92915050565b600061ffff82169050919050565b6200031481620002fb565b81146200032057600080fd5b50565b600081519050620003348162000309565b92915050565b600063ffffffff82169050919050565b62000355816200033a565b81146200036157600080fd5b50565b60008151905062000375816200034a565b92915050565b6000806000806000806000806000806101408b8d031215620003a257620003a16200019b565b5b6000620003b28d828e01620001c4565b9a50506020620003c58d828e0162000229565b9950506040620003d88d828e0162000264565b9850506060620003eb8d828e0162000229565b9750506080620003fe8d828e01620002a9565b96505060a0620004118d828e01620001c4565b95505060c0620004248d828e01620001c4565b94505060e0620004378d828e01620002e4565b9350506101006200044b8d828e0162000323565b9250506101206200045f8d828e0162000364565b9150509295989b9194979a5092959850565b7f4e487b7100000000000000000000000000000000000000000000000000000000600052602160045260246000fd5b60805160a05160c05160e0516101005161012051610140516101605161018051611a02620005266000396000610d2801526000610ced015260008181610578015261088f0152600061074501526000610724015260006106ee015260006106b201526000818161055701526108060152600081816105ac01526106000152611a026000f3fe6080604052600436106100955760003560e01c80636e04ff0d116100595780636e04ff0d146101725780636e0af28d146101b057806382acbc66146101db578063c80c28a214610206578063ef8a923514610231576100a4565b806319aff32b146100ae5780631fe543e3146100d95780634585e33b146101025780635f72245e1461012b57806367f6c11614610168576100a4565b366100a4576100a261025c565b005b6100ac61025c565b005b3480156100ba57600080fd5b506100c3610550565b6040516100d09190610f4e565b60405180910390f35b3480156100e557600080fd5b5061010060048036038101906100fb9190611102565b6105aa565b005b34801561010e57600080fd5b50610129600480360381019061012491906111b9565b61066a565b005b34801561013757600080fd5b50610152600480360381019061014d9190611206565b6107ff565b60405161015f9190610f4e565b60405180910390f35b61017061025c565b005b34801561017e57600080fd5b50610199600480360381019061019491906111b9565b61083b565b6040516101a79291906112cd565b60405180910390f35b3480156101bc57600080fd5b506101c561088b565b6040516101d29190610f4e565b60405180910390f35b3480156101e757600080fd5b506101f06108b3565b6040516101fd9190611354565b60405180910390f35b34801561021257600080fd5b5061021b610920565b6040516102289190610f4e565b60405180910390f35b34801561023d57600080fd5b50610246610930565b60405161025391906113e6565b60405180910390f35b6003546001800160003373ffffffffffffffffffffffffffffffffffffffff1673ffffffffffffffffffffffffffffffffffffffff16815260200190815260200160002060010154126102db576040517f4e46b52200000000000000000000000000000000000000000000000000000000815260040160405180910390fd5b6001808111156102ee576102ed61136f565b5b600460009054906101000a900460ff1660018111156103105761030f61136f565b5b03610347576040517f1997fa4400000000000000000000000000000000000000000000000000000000815260040160405180910390fd5b6000610351610550565b905080341461038c576040517febd6143a00000000000000000000000000000000000000000000000000000000815260040160405180910390fd5b6001600001339080600181540180825580915050600190039060005260206000200160009091909190916101000a81548173ffffffffffffffffffffffffffffffffffffffff021916908373ffffffffffffffffffffffffffffffffffffffff16021790555060006001800160003373ffffffffffffffffffffffffffffffffffffffff1673ffffffffffffffffffffffffffffffffffffffff16815260200190815260200160002060010154905060006001800160003373ffffffffffffffffffffffffffffffffffffffff1673ffffffffffffffffffffffffffffffffffffffff1681526020019081526020016000206000015490506040518060400160405280348361049b9190611430565b81526020016001846104ad9190611464565b8152506001800160003373ffffffffffffffffffffffffffffffffffffffff1673ffffffffffffffffffffffffffffffffffffffff16815260200190815260200160002060008201518160000155602082015181600101559050503373ffffffffffffffffffffffffffffffffffffffff167fd1d599fd695dd76e337d7ab238d0373013f78c6b0ae571fa655e6598c6a9709460405160405180910390a2505050565b60006105a57f00000000000000000000000000000000000000000000000000000000000000007f000000000000000000000000000000000000000000000000000000000000000061094790919063ffffffff16565b905090565b7f000000000000000000000000000000000000000000000000000000000000000073ffffffffffffffffffffffffffffffffffffffff163373ffffffffffffffffffffffffffffffffffffffff161461065c57337f00000000000000000000000000000000000000000000000000000000000000006040517f1cf993f40000000000000000000000000000000000000000000000000000000081526004016106539291906114e9565b60405180910390fd5b6106668282610996565b5050565b6000610674610ce8565b905080156107fa576001600460006101000a81548160ff021916908360018111156106a2576106a161136f565b5b02179055504260068190555060007f000000000000000000000000000000000000000000000000000000000000000073ffffffffffffffffffffffffffffffffffffffff16635d3b1d307f000000000000000000000000000000000000000000000000000000000000000060008054906101000a900467ffffffffffffffff167f00000000000000000000000000000000000000000000000000000000000000007f000000000000000000000000000000000000000000000000000000000000000060016040518663ffffffff1660e01b815260040161078695949392919061158a565b6020604051808303816000875af11580156107a5573d6000803e3d6000fd5b505050506040513d601f19601f820116820180604052508101906107c991906115f2565b9050807ff01fb06dc49a153c8bc21e72e870b9d2ff1cdf906dbd78cb52ed6c4dce0b94c460405160405180910390a2505b505050565b60006108347f000000000000000000000000000000000000000000000000000000000000000083610dad90919063ffffffff16565b9050919050565b60006060610847610ce8565b9150816040518060400160405280600381526020017f3078300000000000000000000000000000000000000000000000000000000000815250915091509250929050565b60007f0000000000000000000000000000000000000000000000000000000000000000905090565b6108bb610e74565b6001800160003373ffffffffffffffffffffffffffffffffffffffff1673ffffffffffffffffffffffffffffffffffffffff16815260200190815260200160002060405180604001604052908160008201548152602001600182015481525050905090565b6000600160000180549050905090565b6000600460009054906101000a900460ff16905090565b60008061095383610de3565b90506000670de0b6b3a76400008561096b919061161f565b905081670de0b6b3a764000082610982919061161f565b61098c9190611690565b9250505092915050565b6000600160000180549050826000815181106109b5576109b46116c1565b5b60200260200101516109c791906116f0565b90506000600160000182815481106109e2576109e16116c1565b5b9060005260206000200160009054906101000a900473ffffffffffffffffffffffffffffffffffffffff1690506000600460006101000a81548160ff02191690836001811115610a3557610a3461136f565b5b021790555060006064476002610a4b9190611690565b610a55919061161f565b9050600047905060008373ffffffffffffffffffffffffffffffffffffffff168383610a819190611721565b604051610a8d90611786565b60006040518083038185875af1925050503d8060008114610aca576040519150601f19603f3d011682016040523d82523d6000602084013e610acf565b606091505b5050905080610b2257838383610ae59190611721565b6040517fce96730b000000000000000000000000000000000000000000000000000000008152600401610b199291906117fa565b60405180910390fd5b60005b600160000180549050811015610c2357600060016000018281548110610b4e57610b4d6116c1565b5b9060005260206000200160009054906101000a900473ffffffffffffffffffffffffffffffffffffffff16905060006001800160008373ffffffffffffffffffffffffffffffffffffffff1673ffffffffffffffffffffffffffffffffffffffff1681526020019081526020016000206000018190555060006001800160008373ffffffffffffffffffffffffffffffffffffffff1673ffffffffffffffffffffffffffffffffffffffff16815260200190815260200160002060010181905550508080610c1b90611823565b915050610b25565b50600067ffffffffffffffff811115610c3f57610c3e610fbf565b5b604051908082528060200260200182016040528015610c6d5781602001602082028036833780820191505090505b5060016000019080519060200190610c86929190610e8e565b506001600554610c969190611430565b6005819055508373ffffffffffffffffffffffffffffffffffffffff167fab5517330b96d2c7c19a5a269c79770176b37d3ff9f7b3689e492a61c31c1ff760405160405180910390a250505050505050565b6000807f000000000000000000000000000000000000000000000000000000000000000060065442610d1a9190611721565b1190506000804711905060007f0000000000000000000000000000000000000000000000000000000000000000600160000180549050119050828015610d5d5750815b8015610d665750805b8015610da5575060006001811115610d8157610d8061136f565b5b600460009054906101000a900460ff166001811115610da357610da261136f565b5b145b935050505090565b600080610db983610de3565b9050670de0b6b3a76400008482610dd0919061161f565b610dda9190611690565b91505092915050565b6000808273ffffffffffffffffffffffffffffffffffffffff1663feaf968c6040518163ffffffff1660e01b815260040160a060405180830381865afa158015610e31573d6000803e3d6000fd5b505050506040513d601f19601f82011682018060405250810190610e5591906118d9565b5050509150506402540be40081610e6c9190611954565b915050919050565b604051806040016040528060008152602001600081525090565b828054828255906000526020600020908101928215610f07579160200282015b82811115610f065782518260006101000a81548173ffffffffffffffffffffffffffffffffffffffff021916908373ffffffffffffffffffffffffffffffffffffffff16021790555091602001919060010190610eae565b5b509050610f149190610f18565b5090565b5b80821115610f31576000816000905550600101610f19565b5090565b6000819050919050565b610f4881610f35565b82525050565b6000602082019050610f636000830184610f3f565b92915050565b6000604051905090565b600080fd5b600080fd5b610f8681610f35565b8114610f9157600080fd5b50565b600081359050610fa381610f7d565b92915050565b600080fd5b6000601f19601f8301169050919050565b7f4e487b7100000000000000000000000000000000000000000000000000000000600052604160045260246000fd5b610ff782610fae565b810181811067ffffffffffffffff8211171561101657611015610fbf565b5b80604052505050565b6000611029610f69565b90506110358282610fee565b919050565b600067ffffffffffffffff82111561105557611054610fbf565b5b602082029050602081019050919050565b600080fd5b600061107e6110798461103a565b61101f565b905080838252602082019050602084028301858111156110a1576110a0611066565b5b835b818110156110ca57806110b68882610f94565b8452602084019350506020810190506110a3565b5050509392505050565b600082601f8301126110e9576110e8610fa9565b5b81356110f984826020860161106b565b91505092915050565b6000806040838503121561111957611118610f73565b5b600061112785828601610f94565b925050602083013567ffffffffffffffff81111561114857611147610f78565b5b611154858286016110d4565b9150509250929050565b600080fd5b60008083601f84011261117957611178610fa9565b5b8235905067ffffffffffffffff8111156111965761119561115e565b5b6020830191508360018202830111156111b2576111b1611066565b5b9250929050565b600080602083850312156111d0576111cf610f73565b5b600083013567ffffffffffffffff8111156111ee576111ed610f78565b5b6111fa85828601611163565b92509250509250929050565b60006020828403121561121c5761121b610f73565b5b600061122a84828501610f94565b91505092915050565b60008115159050919050565b61124881611233565b82525050565b600081519050919050565b600082825260208201905092915050565b60005b8381101561128857808201518184015260208101905061126d565b60008484015250505050565b600061129f8261124e565b6112a98185611259565b93506112b981856020860161126a565b6112c281610fae565b840191505092915050565b60006040820190506112e2600083018561123f565b81810360208301526112f48184611294565b90509392505050565b61130681610f35565b82525050565b6000819050919050565b61131f8161130c565b82525050565b60408201600082015161133b60008501826112fd565b50602082015161134e6020850182611316565b50505050565b60006040820190506113696000830184611325565b92915050565b7f4e487b7100000000000000000000000000000000000000000000000000000000600052602160045260246000fd5b600281106113af576113ae61136f565b5b50565b60008190506113c08261139e565b919050565b60006113d0826113b2565b9050919050565b6113e0816113c5565b82525050565b60006020820190506113fb60008301846113d7565b92915050565b7f4e487b7100000000000000000000000000000000000000000000000000000000600052601160045260246000fd5b600061143b82610f35565b915061144683610f35565b925082820190508082111561145e5761145d611401565b5b92915050565b600061146f8261130c565b915061147a8361130c565b9250828201905082811215600083121683821260008412151617156114a2576114a1611401565b5b92915050565b600073ffffffffffffffffffffffffffffffffffffffff82169050919050565b60006114d3826114a8565b9050919050565b6114e3816114c8565b82525050565b60006040820190506114fe60008301856114da565b61150b60208301846114da565b9392505050565b6000819050919050565b61152581611512565b82525050565b600067ffffffffffffffff82169050919050565b6115488161152b565b82525050565b600061ffff82169050919050565b6115658161154e565b82525050565b600063ffffffff82169050919050565b6115848161156b565b82525050565b600060a08201905061159f600083018861151c565b6115ac602083018761153f565b6115b9604083018661155c565b6115c6606083018561157b565b6115d3608083018461157b565b9695505050505050565b6000815190506115ec81610f7d565b92915050565b60006020828403121561160857611607610f73565b5b6000611616848285016115dd565b91505092915050565b600061162a82610f35565b915061163583610f35565b925082820261164381610f35565b9150828204841483151761165a57611659611401565b5b5092915050565b7f4e487b7100000000000000000000000000000000000000000000000000000000600052601260045260246000fd5b600061169b82610f35565b91506116a683610f35565b9250826116b6576116b5611661565b5b828204905092915050565b7f4e487b7100000000000000000000000000000000000000000000000000000000600052603260045260246000fd5b60006116fb82610f35565b915061170683610f35565b92508261171657611715611661565b5b828206905092915050565b600061172c82610f35565b915061173783610f35565b925082820390508181111561174f5761174e611401565b5b92915050565b600081905092915050565b50565b6000611770600083611755565b915061177b82611760565b600082019050919050565b600061179182611763565b9150819050919050565b6000819050919050565b60006117c06117bb6117b6846114a8565b61179b565b6114a8565b9050919050565b60006117d2826117a5565b9050919050565b60006117e4826117c7565b9050919050565b6117f4816117d9565b82525050565b600060408201905061180f60008301856117eb565b61181c6020830184610f3f565b9392505050565b600061182e82610f35565b91507fffffffffffffffffffffffffffffffffffffffffffffffffffffffffffffffff82036118605761185f611401565b5b600182019050919050565b600069ffffffffffffffffffff82169050919050565b61188a8161186b565b811461189557600080fd5b50565b6000815190506118a781611881565b92915050565b6118b68161130c565b81146118c157600080fd5b50565b6000815190506118d3816118ad565b92915050565b600080600080600060a086880312156118f5576118f4610f73565b5b600061190388828901611898565b9550506020611914888289016118c4565b9450506040611925888289016115dd565b9350506060611936888289016115dd565b925050608061194788828901611898565b9150509295509295909350565b600061195f8261130c565b915061196a8361130c565b92508282026119788161130c565b91507f800000000000000000000000000000000000000000000000000000000000000084146000841216156119b0576119af611401565b5b82820584148315176119c5576119c4611401565b5b509291505056fea2646970667358221220b10f7005f1ca624329ce81d15e9e9c9623ee213c059370650017727ecd0a1cc664736f6c63430008130033",
  "devdoc": {
    "kind": "dev",
    "methods": {},
    "version": 1
  },
  "userdoc": {
    "kind": "user",
    "methods": {},
    "version": 1
  },
  "storageLayout": {
    "storage": [
      {
        "astId": 310,
        "contract": "contracts/Lottery.sol:Lottery",
        "label": "s_subscriptionId",
        "offset": 0,
        "slot": "0",
        "type": "t_uint64"
      },
      {
        "astId": 326,
        "contract": "contracts/Lottery.sol:Lottery",
        "label": "s_participants",
        "offset": 0,
        "slot": "1",
        "type": "t_struct(MapStruct)297_storage"
      },
      {
        "astId": 328,
        "contract": "contracts/Lottery.sol:Lottery",
        "label": "s_Max_Participation_Count",
        "offset": 0,
        "slot": "3",
        "type": "t_int256"
      },
      {
        "astId": 331,
        "contract": "contracts/Lottery.sol:Lottery",
        "label": "s_lottery_status",
        "offset": 0,
        "slot": "4",
        "type": "t_enum(Status)300"
      },
      {
        "astId": 333,
        "contract": "contracts/Lottery.sol:Lottery",
        "label": "noOfWinners",
        "offset": 0,
        "slot": "5",
        "type": "t_uint256"
      },
      {
        "astId": 335,
        "contract": "contracts/Lottery.sol:Lottery",
        "label": "lastTimeStamp",
        "offset": 0,
        "slot": "6",
        "type": "t_uint256"
      }
    ],
    "types": {
      "t_address": {
        "encoding": "inplace",
        "label": "address",
        "numberOfBytes": "20"
      },
      "t_address_payable": {
        "encoding": "inplace",
        "label": "address payable",
        "numberOfBytes": "20"
      },
      "t_array(t_address_payable)dyn_storage": {
        "base": "t_address_payable",
        "encoding": "dynamic_array",
        "label": "address payable[]",
        "numberOfBytes": "32"
      },
      "t_enum(Status)300": {
        "encoding": "inplace",
        "label": "enum Lottery.Status",
        "numberOfBytes": "1"
      },
      "t_int256": {
        "encoding": "inplace",
        "label": "int256",
        "numberOfBytes": "32"
      },
      "t_mapping(t_address,t_struct(valueHolderStruct)288_storage)": {
        "encoding": "mapping",
        "key": "t_address",
        "label": "mapping(address => struct Lottery.valueHolderStruct)",
        "numberOfBytes": "32",
        "value": "t_struct(valueHolderStruct)288_storage"
      },
      "t_struct(MapStruct)297_storage": {
        "encoding": "inplace",
        "label": "struct Lottery.MapStruct",
        "members": [
          {
            "astId": 291,
            "contract": "contracts/Lottery.sol:Lottery",
            "label": "arrAddress",
            "offset": 0,
            "slot": "0",
            "type": "t_array(t_address_payable)dyn_storage"
          },
          {
            "astId": 296,
            "contract": "contracts/Lottery.sol:Lottery",
            "label": "mapAddress",
            "offset": 0,
            "slot": "1",
            "type": "t_mapping(t_address,t_struct(valueHolderStruct)288_storage)"
          }
        ],
        "numberOfBytes": "64"
      },
      "t_struct(valueHolderStruct)288_storage": {
        "encoding": "inplace",
        "label": "struct Lottery.valueHolderStruct",
        "members": [
          {
            "astId": 285,
            "contract": "contracts/Lottery.sol:Lottery",
            "label": "value",
            "offset": 0,
            "slot": "0",
            "type": "t_uint256"
          },
          {
            "astId": 287,
            "contract": "contracts/Lottery.sol:Lottery",
            "label": "count",
            "offset": 0,
            "slot": "1",
            "type": "t_int256"
          }
        ],
        "numberOfBytes": "64"
      },
      "t_uint256": {
        "encoding": "inplace",
        "label": "uint256",
        "numberOfBytes": "32"
      },
      "t_uint64": {
        "encoding": "inplace",
        "label": "uint64",
        "numberOfBytes": "8"
      }
    }
  }
}