{
  "address": "0xA6b4d52971A42EA31f589098C682Ad05ECF12e7B",
  "abi": [
    {
      "inputs": [
        {
          "internalType": "uint256",
          "name": "ticketValue",
          "type": "uint256"
        },
        {
          "internalType": "address",
          "name": "priceFeedAdress",
          "type": "address"
        },
        {
          "internalType": "int256",
          "name": "maxParticipationCount",
          "type": "int256"
        },
        {
          "internalType": "address",
          "name": "vrfConsumerBaseV2Address",
          "type": "address"
        },
        {
          "internalType": "uint64",
          "name": "subscriptionId",
          "type": "uint64"
        },
        {
          "internalType": "uint256",
          "name": "participantLimit",
          "type": "uint256"
        },
        {
          "internalType": "bytes32",
          "name": "hashKey",
          "type": "bytes32"
        },
        {
          "internalType": "uint16",
          "name": "noOfConfirmations",
          "type": "uint16"
        },
        {
          "internalType": "uint32",
          "name": "gasLimit",
          "type": "uint32"
        }
      ],
      "stateMutability": "nonpayable",
      "type": "constructor"
    },
    {
      "inputs": [],
      "name": "Doesnt__Match__Required__Eth",
      "type": "error"
    },
    {
      "inputs": [],
      "name": "Lottery__Currently__Not__Available",
      "type": "error"
    },
    {
      "inputs": [],
      "name": "Maximum__Contribution__Limits__Five__Try__In__Next__Session",
      "type": "error"
    },
    {
      "inputs": [
        {
          "internalType": "address",
          "name": "have",
          "type": "address"
        },
        {
          "internalType": "address",
          "name": "want",
          "type": "address"
        }
      ],
      "name": "OnlyCoordinatorCanFulfill",
      "type": "error"
    },
    {
      "inputs": [
        {
          "internalType": "address",
          "name": "winner",
          "type": "address"
        },
        {
          "internalType": "uint256",
          "name": "balance",
          "type": "uint256"
        }
      ],
      "name": "Transaction__Failed",
      "type": "error"
    },
    {
      "inputs": [
        {
          "internalType": "bool",
          "name": "status",
          "type": "bool"
        }
      ],
      "name": "Validatio__Error__Occured",
      "type": "error"
    },
    {
      "anonymous": false,
      "inputs": [
        {
          "indexed": true,
          "internalType": "address",
          "name": "participantAddress",
          "type": "address"
        }
      ],
      "name": "Evt__Participants__Name",
      "type": "event"
    },
    {
      "anonymous": false,
      "inputs": [
        {
          "indexed": true,
          "internalType": "address",
          "name": "winner",
          "type": "address"
        }
      ],
      "name": "Evt__RecentWinner",
      "type": "event"
    },
    {
      "anonymous": false,
      "inputs": [
        {
          "indexed": true,
          "internalType": "uint256",
          "name": "requestId",
          "type": "uint256"
        }
      ],
      "name": "Evt__RequestId",
      "type": "event"
    },
    {
      "stateMutability": "payable",
      "type": "fallback"
    },
    {
      "inputs": [
        {
          "internalType": "bytes",
          "name": "",
          "type": "bytes"
        }
      ],
      "name": "checkUpkeep",
      "outputs": [
        {
          "internalType": "bool",
          "name": "",
          "type": "bool"
        },
        {
          "internalType": "bytes",
          "name": "",
          "type": "bytes"
        }
      ],
      "stateMutability": "view",
      "type": "function"
    },
    {
      "inputs": [],
      "name": "checkUpkeepValidation",
      "outputs": [
        {
          "internalType": "bool",
          "name": "",
          "type": "bool"
        }
      ],
      "stateMutability": "view",
      "type": "function"
    },
    {
      "inputs": [],
      "name": "currentStatus",
      "outputs": [
        {
          "internalType": "enum Lottery.Status",
          "name": "",
          "type": "uint8"
        }
      ],
      "stateMutability": "view",
      "type": "function"
    },
    {
      "inputs": [],
      "name": "enter_Lottery",
      "outputs": [],
      "stateMutability": "payable",
      "type": "function"
    },
    {
      "inputs": [],
      "name": "getNumberOfParticipants",
      "outputs": [
        {
          "internalType": "uint256",
          "name": "",
          "type": "uint256"
        }
      ],
      "stateMutability": "view",
      "type": "function"
    },
    {
      "inputs": [],
      "name": "getParticipantDetails",
      "outputs": [
        {
          "components": [
            {
              "internalType": "uint256",
              "name": "value",
              "type": "uint256"
            },
            {
              "internalType": "int256",
              "name": "count",
              "type": "int256"
            }
          ],
          "internalType": "struct Lottery.valueHolderStruct",
          "name": "",
          "type": "tuple"
        }
      ],
      "stateMutability": "view",
      "type": "function"
    },
    {
      "inputs": [],
      "name": "getTicketValuePriceInEth",
      "outputs": [
        {
          "internalType": "uint256",
          "name": "",
          "type": "uint256"
        }
      ],
      "stateMutability": "view",
      "type": "function"
    },
    {
      "inputs": [],
      "name": "getTicketValuePriceInUSD",
      "outputs": [
        {
          "internalType": "uint256",
          "name": "",
          "type": "uint256"
        }
      ],
      "stateMutability": "view",
      "type": "function"
    },
    {
      "inputs": [
        {
          "internalType": "bytes",
          "name": "",
          "type": "bytes"
        }
      ],
      "name": "performUpkeep",
      "outputs": [],
      "stateMutability": "nonpayable",
      "type": "function"
    },
    {
      "inputs": [
        {
          "internalType": "uint256",
          "name": "requestId",
          "type": "uint256"
        },
        {
          "internalType": "uint256[]",
          "name": "randomWords",
          "type": "uint256[]"
        }
      ],
      "name": "rawFulfillRandomWords",
      "outputs": [],
      "stateMutability": "nonpayable",
      "type": "function"
    },
    {
      "stateMutability": "payable",
      "type": "receive"
    }
  ],
  "transactionHash": "0x0488a50e7a8f146975dc7f081012b4dbd894a788d54ade7e7fb957e19d52f9aa",
  "args": [
    "10",
    "0x694AA1769357215DE4FAC081bf1f309aDC325306",
    "5",
    "0x8103B0A8A00be2DDC778e6e7eaa21791Cd364625",
    "8275",
    "0",
    "0x474e34a077df58807dbe9c96d3c009b23b3c6d0cce433e59bbf5b34f823bc56c",
    "2",
    "1000000"
  ],
  "numDeployments": 8,
  "solcInputHash": "385b22a4e144014ad34ce09f49c8ec0f",
  "bytecode": "0x6101806040523480156200001257600080fd5b5060405162001e1d38038062001e1d83398181016040528101906200003891906200036a565b858073ffffffffffffffffffffffffffffffffffffffff1660808173ffffffffffffffffffffffffffffffffffffffff1681525050508861014081815250508773ffffffffffffffffffffffffffffffffffffffff1660a08173ffffffffffffffffffffffffffffffffffffffff168152505086600381905550846000806101000a81548167ffffffffffffffff021916908367ffffffffffffffff1602179055508573ffffffffffffffffffffffffffffffffffffffff1660c08173ffffffffffffffffffffffffffffffffffffffff16815250506000600460006101000a81548160ff0219169083600181111562000137576200013662000449565b5b021790555060006005819055508361016081815250508260e081815250508161ffff166101008161ffff16815250508063ffffffff166101208163ffffffff168152505050505050505050505062000478565b600080fd5b6000819050919050565b620001a4816200018f565b8114620001b057600080fd5b50565b600081519050620001c48162000199565b92915050565b600073ffffffffffffffffffffffffffffffffffffffff82169050919050565b6000620001f782620001ca565b9050919050565b6200020981620001ea565b81146200021557600080fd5b50565b6000815190506200022981620001fe565b92915050565b6000819050919050565b62000244816200022f565b81146200025057600080fd5b50565b600081519050620002648162000239565b92915050565b600067ffffffffffffffff82169050919050565b62000289816200026a565b81146200029557600080fd5b50565b600081519050620002a9816200027e565b92915050565b6000819050919050565b620002c481620002af565b8114620002d057600080fd5b50565b600081519050620002e481620002b9565b92915050565b600061ffff82169050919050565b6200030381620002ea565b81146200030f57600080fd5b50565b6000815190506200032381620002f8565b92915050565b600063ffffffff82169050919050565b620003448162000329565b81146200035057600080fd5b50565b600081519050620003648162000339565b92915050565b60008060008060008060008060006101208a8c03121562000390576200038f6200018a565b5b6000620003a08c828d01620001b3565b9950506020620003b38c828d0162000218565b9850506040620003c68c828d0162000253565b9750506060620003d98c828d0162000218565b9650506080620003ec8c828d0162000298565b95505060a0620003ff8c828d01620001b3565b94505060c0620004128c828d01620002d3565b93505060e0620004258c828d0162000312565b925050610100620004398c828d0162000353565b9150509295985092959850929598565b7f4e487b7100000000000000000000000000000000000000000000000000000000600052602160045260246000fd5b60805160a05160c05160e05161010051610120516101405161016051611931620004ec60003960006108db015260008181610566015261083d0152600061073301526000610712015260006106dc015260006106a00152600061054501526000818161059a01526105ee01526119316000f3fe6080604052600436106100955760003560e01c80636e0af28d116100595780636e0af28d1461017357806382acbc661461019e578063ac8894a9146101c9578063c80c28a2146101f4578063ef8a92351461021f576100a4565b806319aff32b146100ae5780631fe543e3146100d95780634585e33b1461010257806367f6c1161461012b5780636e04ff0d14610135576100a4565b366100a4576100a261024a565b005b6100ac61024a565b005b3480156100ba57600080fd5b506100c361053e565b6040516100d09190610e8f565b60405180910390f35b3480156100e557600080fd5b5061010060048036038101906100fb9190611043565b610598565b005b34801561010e57600080fd5b50610129600480360381019061012491906110fa565b610658565b005b61013361024a565b005b34801561014157600080fd5b5061015c600480360381019061015791906110fa565b61082e565b60405161016a9291906111e1565b60405180910390f35b34801561017f57600080fd5b50610188610839565b6040516101959190610e8f565b60405180910390f35b3480156101aa57600080fd5b506101b3610861565b6040516101c09190611268565b60405180910390f35b3480156101d557600080fd5b506101de6108ce565b6040516101eb9190611283565b60405180910390f35b34801561020057600080fd5b5061020961095c565b6040516102169190610e8f565b60405180910390f35b34801561022b57600080fd5b5061023461096c565b6040516102419190611315565b60405180910390f35b6003546001800160003373ffffffffffffffffffffffffffffffffffffffff1673ffffffffffffffffffffffffffffffffffffffff16815260200190815260200160002060010154126102c9576040517f4e46b52200000000000000000000000000000000000000000000000000000000815260040160405180910390fd5b6001808111156102dc576102db61129e565b5b600460009054906101000a900460ff1660018111156102fe576102fd61129e565b5b03610335576040517f1997fa4400000000000000000000000000000000000000000000000000000000815260040160405180910390fd5b600061033f61053e565b905080341461037a576040517febd6143a00000000000000000000000000000000000000000000000000000000815260040160405180910390fd5b6001600001339080600181540180825580915050600190039060005260206000200160009091909190916101000a81548173ffffffffffffffffffffffffffffffffffffffff021916908373ffffffffffffffffffffffffffffffffffffffff16021790555060006001800160003373ffffffffffffffffffffffffffffffffffffffff1673ffffffffffffffffffffffffffffffffffffffff16815260200190815260200160002060010154905060006001800160003373ffffffffffffffffffffffffffffffffffffffff1673ffffffffffffffffffffffffffffffffffffffff16815260200190815260200160002060000154905060405180604001604052803483610489919061135f565b815260200160018461049b9190611393565b8152506001800160003373ffffffffffffffffffffffffffffffffffffffff1673ffffffffffffffffffffffffffffffffffffffff16815260200190815260200160002060008201518160000155602082015181600101559050503373ffffffffffffffffffffffffffffffffffffffff167fd1d599fd695dd76e337d7ab238d0373013f78c6b0ae571fa655e6598c6a9709460405160405180910390a2505050565b60006105937f00000000000000000000000000000000000000000000000000000000000000007f000000000000000000000000000000000000000000000000000000000000000061098390919063ffffffff16565b905090565b7f000000000000000000000000000000000000000000000000000000000000000073ffffffffffffffffffffffffffffffffffffffff163373ffffffffffffffffffffffffffffffffffffffff161461064a57337f00000000000000000000000000000000000000000000000000000000000000006040517f1cf993f4000000000000000000000000000000000000000000000000000000008152600401610641929190611418565b60405180910390fd5b61065482826109d2565b5050565b60006106626108ce565b905080156107ec576001600460006101000a81548160ff021916908360018111156106905761068f61129e565b5b02179055504260068190555060007f000000000000000000000000000000000000000000000000000000000000000073ffffffffffffffffffffffffffffffffffffffff16635d3b1d307f000000000000000000000000000000000000000000000000000000000000000060008054906101000a900467ffffffffffffffff167f00000000000000000000000000000000000000000000000000000000000000007f000000000000000000000000000000000000000000000000000000000000000060016040518663ffffffff1660e01b81526004016107749594939291906114b9565b6020604051808303816000875af1158015610793573d6000803e3d6000fd5b505050506040513d601f19601f820116820180604052508101906107b79190611521565b9050807ff01fb06dc49a153c8bc21e72e870b9d2ff1cdf906dbd78cb52ed6c4dce0b94c460405160405180910390a250610829565b806040517fa23143dd0000000000000000000000000000000000000000000000000000000081526004016108209190611283565b60405180910390fd5b505050565b600060609250929050565b60007f0000000000000000000000000000000000000000000000000000000000000000905090565b610869610db5565b6001800160003373ffffffffffffffffffffffffffffffffffffffff1673ffffffffffffffffffffffffffffffffffffffff16815260200190815260200160002060405180604001604052908160008201548152602001600182015481525050905090565b60008060004711905060007f000000000000000000000000000000000000000000000000000000000000000060016000018054905011905060008280156109125750815b801561095157506000600181111561092d5761092c61129e565b5b600460009054906101000a900460ff16600181111561094f5761094e61129e565b5b145b905080935050505090565b6000600160000180549050905090565b6000600460009054906101000a900460ff16905090565b60008061098f83610d24565b90506000670de0b6b3a7640000856109a7919061154e565b905081670de0b6b3a7640000826109be919061154e565b6109c891906115bf565b9250505092915050565b6000600160000180549050826000815181106109f1576109f06115f0565b5b6020026020010151610a03919061161f565b9050600060016000018281548110610a1e57610a1d6115f0565b5b9060005260206000200160009054906101000a900473ffffffffffffffffffffffffffffffffffffffff1690506000600460006101000a81548160ff02191690836001811115610a7157610a7061129e565b5b021790555060006064476002610a8791906115bf565b610a91919061154e565b9050600047905060008373ffffffffffffffffffffffffffffffffffffffff168383610abd9190611650565b604051610ac9906116b5565b60006040518083038185875af1925050503d8060008114610b06576040519150601f19603f3d011682016040523d82523d6000602084013e610b0b565b606091505b5050905080610b5e57838383610b219190611650565b6040517fce96730b000000000000000000000000000000000000000000000000000000008152600401610b55929190611729565b60405180910390fd5b60005b600160000180549050811015610c5f57600060016000018281548110610b8a57610b896115f0565b5b9060005260206000200160009054906101000a900473ffffffffffffffffffffffffffffffffffffffff16905060006001800160008373ffffffffffffffffffffffffffffffffffffffff1673ffffffffffffffffffffffffffffffffffffffff1681526020019081526020016000206000018190555060006001800160008373ffffffffffffffffffffffffffffffffffffffff1673ffffffffffffffffffffffffffffffffffffffff16815260200190815260200160002060010181905550508080610c5790611752565b915050610b61565b50600067ffffffffffffffff811115610c7b57610c7a610f00565b5b604051908082528060200260200182016040528015610ca95781602001602082028036833780820191505090505b5060016000019080519060200190610cc2929190610dcf565b506001600554610cd2919061135f565b6005819055508373ffffffffffffffffffffffffffffffffffffffff167fab5517330b96d2c7c19a5a269c79770176b37d3ff9f7b3689e492a61c31c1ff760405160405180910390a250505050505050565b6000808273ffffffffffffffffffffffffffffffffffffffff1663feaf968c6040518163ffffffff1660e01b815260040160a060405180830381865afa158015610d72573d6000803e3d6000fd5b505050506040513d601f19601f82011682018060405250810190610d969190611808565b5050509150506402540be40081610dad9190611883565b915050919050565b604051806040016040528060008152602001600081525090565b828054828255906000526020600020908101928215610e48579160200282015b82811115610e475782518260006101000a81548173ffffffffffffffffffffffffffffffffffffffff021916908373ffffffffffffffffffffffffffffffffffffffff16021790555091602001919060010190610def565b5b509050610e559190610e59565b5090565b5b80821115610e72576000816000905550600101610e5a565b5090565b6000819050919050565b610e8981610e76565b82525050565b6000602082019050610ea46000830184610e80565b92915050565b6000604051905090565b600080fd5b600080fd5b610ec781610e76565b8114610ed257600080fd5b50565b600081359050610ee481610ebe565b92915050565b600080fd5b6000601f19601f8301169050919050565b7f4e487b7100000000000000000000000000000000000000000000000000000000600052604160045260246000fd5b610f3882610eef565b810181811067ffffffffffffffff82111715610f5757610f56610f00565b5b80604052505050565b6000610f6a610eaa565b9050610f768282610f2f565b919050565b600067ffffffffffffffff821115610f9657610f95610f00565b5b602082029050602081019050919050565b600080fd5b6000610fbf610fba84610f7b565b610f60565b90508083825260208201905060208402830185811115610fe257610fe1610fa7565b5b835b8181101561100b5780610ff78882610ed5565b845260208401935050602081019050610fe4565b5050509392505050565b600082601f83011261102a57611029610eea565b5b813561103a848260208601610fac565b91505092915050565b6000806040838503121561105a57611059610eb4565b5b600061106885828601610ed5565b925050602083013567ffffffffffffffff81111561108957611088610eb9565b5b61109585828601611015565b9150509250929050565b600080fd5b60008083601f8401126110ba576110b9610eea565b5b8235905067ffffffffffffffff8111156110d7576110d661109f565b5b6020830191508360018202830111156110f3576110f2610fa7565b5b9250929050565b6000806020838503121561111157611110610eb4565b5b600083013567ffffffffffffffff81111561112f5761112e610eb9565b5b61113b858286016110a4565b92509250509250929050565b60008115159050919050565b61115c81611147565b82525050565b600081519050919050565b600082825260208201905092915050565b60005b8381101561119c578082015181840152602081019050611181565b60008484015250505050565b60006111b382611162565b6111bd818561116d565b93506111cd81856020860161117e565b6111d681610eef565b840191505092915050565b60006040820190506111f66000830185611153565b818103602083015261120881846111a8565b90509392505050565b61121a81610e76565b82525050565b6000819050919050565b61123381611220565b82525050565b60408201600082015161124f6000850182611211565b506020820151611262602085018261122a565b50505050565b600060408201905061127d6000830184611239565b92915050565b60006020820190506112986000830184611153565b92915050565b7f4e487b7100000000000000000000000000000000000000000000000000000000600052602160045260246000fd5b600281106112de576112dd61129e565b5b50565b60008190506112ef826112cd565b919050565b60006112ff826112e1565b9050919050565b61130f816112f4565b82525050565b600060208201905061132a6000830184611306565b92915050565b7f4e487b7100000000000000000000000000000000000000000000000000000000600052601160045260246000fd5b600061136a82610e76565b915061137583610e76565b925082820190508082111561138d5761138c611330565b5b92915050565b600061139e82611220565b91506113a983611220565b9250828201905082811215600083121683821260008412151617156113d1576113d0611330565b5b92915050565b600073ffffffffffffffffffffffffffffffffffffffff82169050919050565b6000611402826113d7565b9050919050565b611412816113f7565b82525050565b600060408201905061142d6000830185611409565b61143a6020830184611409565b9392505050565b6000819050919050565b61145481611441565b82525050565b600067ffffffffffffffff82169050919050565b6114778161145a565b82525050565b600061ffff82169050919050565b6114948161147d565b82525050565b600063ffffffff82169050919050565b6114b38161149a565b82525050565b600060a0820190506114ce600083018861144b565b6114db602083018761146e565b6114e8604083018661148b565b6114f560608301856114aa565b61150260808301846114aa565b9695505050505050565b60008151905061151b81610ebe565b92915050565b60006020828403121561153757611536610eb4565b5b60006115458482850161150c565b91505092915050565b600061155982610e76565b915061156483610e76565b925082820261157281610e76565b9150828204841483151761158957611588611330565b5b5092915050565b7f4e487b7100000000000000000000000000000000000000000000000000000000600052601260045260246000fd5b60006115ca82610e76565b91506115d583610e76565b9250826115e5576115e4611590565b5b828204905092915050565b7f4e487b7100000000000000000000000000000000000000000000000000000000600052603260045260246000fd5b600061162a82610e76565b915061163583610e76565b92508261164557611644611590565b5b828206905092915050565b600061165b82610e76565b915061166683610e76565b925082820390508181111561167e5761167d611330565b5b92915050565b600081905092915050565b50565b600061169f600083611684565b91506116aa8261168f565b600082019050919050565b60006116c082611692565b9150819050919050565b6000819050919050565b60006116ef6116ea6116e5846113d7565b6116ca565b6113d7565b9050919050565b6000611701826116d4565b9050919050565b6000611713826116f6565b9050919050565b61172381611708565b82525050565b600060408201905061173e600083018561171a565b61174b6020830184610e80565b9392505050565b600061175d82610e76565b91507fffffffffffffffffffffffffffffffffffffffffffffffffffffffffffffffff820361178f5761178e611330565b5b600182019050919050565b600069ffffffffffffffffffff82169050919050565b6117b98161179a565b81146117c457600080fd5b50565b6000815190506117d6816117b0565b92915050565b6117e581611220565b81146117f057600080fd5b50565b600081519050611802816117dc565b92915050565b600080600080600060a0868803121561182457611823610eb4565b5b6000611832888289016117c7565b9550506020611843888289016117f3565b94505060406118548882890161150c565b93505060606118658882890161150c565b9250506080611876888289016117c7565b9150509295509295909350565b600061188e82611220565b915061189983611220565b92508282026118a781611220565b91507f800000000000000000000000000000000000000000000000000000000000000084146000841216156118df576118de611330565b5b82820584148315176118f4576118f3611330565b5b509291505056fea2646970667358221220d10199120a8ffd439055d6fd6ebf3153a9a17e68e8165fa0cf06b3902de7392464736f6c63430008130033",
  "devdoc": {
    "kind": "dev",
    "methods": {},
    "version": 1
  },
  "userdoc": {
    "kind": "user",
    "methods": {},
    "version": 1
  },
  "storageLayout": {
    "storage": [
      {
        "astId": 314,
        "contract": "contracts/Lottery.sol:Lottery",
        "label": "s_subscriptionId",
        "offset": 0,
        "slot": "0",
        "type": "t_uint64"
      },
      {
        "astId": 328,
        "contract": "contracts/Lottery.sol:Lottery",
        "label": "s_participants",
        "offset": 0,
        "slot": "1",
        "type": "t_struct(MapStruct)301_storage"
      },
      {
        "astId": 330,
        "contract": "contracts/Lottery.sol:Lottery",
        "label": "s_Max_Participation_Count",
        "offset": 0,
        "slot": "3",
        "type": "t_int256"
      },
      {
        "astId": 333,
        "contract": "contracts/Lottery.sol:Lottery",
        "label": "s_lottery_status",
        "offset": 0,
        "slot": "4",
        "type": "t_enum(Status)304"
      },
      {
        "astId": 335,
        "contract": "contracts/Lottery.sol:Lottery",
        "label": "noOfWinners",
        "offset": 0,
        "slot": "5",
        "type": "t_uint256"
      },
      {
        "astId": 337,
        "contract": "contracts/Lottery.sol:Lottery",
        "label": "lastTimeStamp",
        "offset": 0,
        "slot": "6",
        "type": "t_uint256"
      }
    ],
    "types": {
      "t_address": {
        "encoding": "inplace",
        "label": "address",
        "numberOfBytes": "20"
      },
      "t_address_payable": {
        "encoding": "inplace",
        "label": "address payable",
        "numberOfBytes": "20"
      },
      "t_array(t_address_payable)dyn_storage": {
        "base": "t_address_payable",
        "encoding": "dynamic_array",
        "label": "address payable[]",
        "numberOfBytes": "32"
      },
      "t_enum(Status)304": {
        "encoding": "inplace",
        "label": "enum Lottery.Status",
        "numberOfBytes": "1"
      },
      "t_int256": {
        "encoding": "inplace",
        "label": "int256",
        "numberOfBytes": "32"
      },
      "t_mapping(t_address,t_struct(valueHolderStruct)292_storage)": {
        "encoding": "mapping",
        "key": "t_address",
        "label": "mapping(address => struct Lottery.valueHolderStruct)",
        "numberOfBytes": "32",
        "value": "t_struct(valueHolderStruct)292_storage"
      },
      "t_struct(MapStruct)301_storage": {
        "encoding": "inplace",
        "label": "struct Lottery.MapStruct",
        "members": [
          {
            "astId": 295,
            "contract": "contracts/Lottery.sol:Lottery",
            "label": "arrAddress",
            "offset": 0,
            "slot": "0",
            "type": "t_array(t_address_payable)dyn_storage"
          },
          {
            "astId": 300,
            "contract": "contracts/Lottery.sol:Lottery",
            "label": "mapAddress",
            "offset": 0,
            "slot": "1",
            "type": "t_mapping(t_address,t_struct(valueHolderStruct)292_storage)"
          }
        ],
        "numberOfBytes": "64"
      },
      "t_struct(valueHolderStruct)292_storage": {
        "encoding": "inplace",
        "label": "struct Lottery.valueHolderStruct",
        "members": [
          {
            "astId": 289,
            "contract": "contracts/Lottery.sol:Lottery",
            "label": "value",
            "offset": 0,
            "slot": "0",
            "type": "t_uint256"
          },
          {
            "astId": 291,
            "contract": "contracts/Lottery.sol:Lottery",
            "label": "count",
            "offset": 0,
            "slot": "1",
            "type": "t_int256"
          }
        ],
        "numberOfBytes": "64"
      },
      "t_uint256": {
        "encoding": "inplace",
        "label": "uint256",
        "numberOfBytes": "32"
      },
      "t_uint64": {
        "encoding": "inplace",
        "label": "uint64",
        "numberOfBytes": "8"
      }
    }
  }
}