{
  "address": "0xD915d2D288DBA853Cf2EEd34212144Bd5259D04B",
  "abi": [
    {
      "inputs": [
        {
          "internalType": "uint64",
          "name": "subscriptionId",
          "type": "uint64"
        },
        {
          "internalType": "uint256",
          "name": "max_participation",
          "type": "uint256"
        },
        {
          "internalType": "uint256",
          "name": "ticketValue",
          "type": "uint256"
        },
        {
          "internalType": "uint256",
          "name": "minParticipants",
          "type": "uint256"
        },
        {
          "internalType": "address",
          "name": "vrfAddress",
          "type": "address"
        },
        {
          "internalType": "address",
          "name": "priceFeedAddress",
          "type": "address"
        },
        {
          "internalType": "bytes32",
          "name": "keyHash",
          "type": "bytes32"
        },
        {
          "internalType": "uint16",
          "name": "requestConfirmations",
          "type": "uint16"
        },
        {
          "internalType": "uint32",
          "name": "cbLimit",
          "type": "uint32"
        }
      ],
      "stateMutability": "nonpayable",
      "type": "constructor"
    },
    {
      "inputs": [],
      "name": "Doesnt__Match__Required__Eth",
      "type": "error"
    },
    {
      "inputs": [],
      "name": "Lottery__Currently__Not__Available",
      "type": "error"
    },
    {
      "inputs": [],
      "name": "Maximum__Contribution__Limits__Five__Try__In__Next__Session",
      "type": "error"
    },
    {
      "inputs": [
        {
          "internalType": "address",
          "name": "have",
          "type": "address"
        },
        {
          "internalType": "address",
          "name": "want",
          "type": "address"
        }
      ],
      "name": "OnlyCoordinatorCanFulfill",
      "type": "error"
    },
    {
      "inputs": [
        {
          "internalType": "address",
          "name": "winner",
          "type": "address"
        },
        {
          "internalType": "uint256",
          "name": "balance",
          "type": "uint256"
        }
      ],
      "name": "Transaction__Failed",
      "type": "error"
    },
    {
      "inputs": [
        {
          "internalType": "bool",
          "name": "status",
          "type": "bool"
        }
      ],
      "name": "Validation__Error__Occured",
      "type": "error"
    },
    {
      "anonymous": false,
      "inputs": [
        {
          "indexed": true,
          "internalType": "address",
          "name": "participantAddress",
          "type": "address"
        }
      ],
      "name": "Evt__Participants__Name",
      "type": "event"
    },
    {
      "anonymous": false,
      "inputs": [
        {
          "indexed": true,
          "internalType": "address",
          "name": "winner",
          "type": "address"
        }
      ],
      "name": "Evt__RecentWinner",
      "type": "event"
    },
    {
      "anonymous": false,
      "inputs": [
        {
          "indexed": true,
          "internalType": "uint256",
          "name": "requestId",
          "type": "uint256"
        }
      ],
      "name": "Evt__RequestId",
      "type": "event"
    },
    {
      "stateMutability": "payable",
      "type": "fallback"
    },
    {
      "inputs": [
        {
          "internalType": "bytes",
          "name": "",
          "type": "bytes"
        }
      ],
      "name": "checkUpkeep",
      "outputs": [
        {
          "internalType": "bool",
          "name": "",
          "type": "bool"
        },
        {
          "internalType": "bytes",
          "name": "",
          "type": "bytes"
        }
      ],
      "stateMutability": "view",
      "type": "function"
    },
    {
      "inputs": [],
      "name": "currentStatus",
      "outputs": [
        {
          "internalType": "enum Lottery.Status",
          "name": "",
          "type": "uint8"
        }
      ],
      "stateMutability": "view",
      "type": "function"
    },
    {
      "inputs": [],
      "name": "enter_Lottery",
      "outputs": [],
      "stateMutability": "payable",
      "type": "function"
    },
    {
      "inputs": [],
      "name": "getNumberOfParticipants",
      "outputs": [
        {
          "internalType": "uint256",
          "name": "",
          "type": "uint256"
        }
      ],
      "stateMutability": "view",
      "type": "function"
    },
    {
      "inputs": [],
      "name": "getParticipantDetails",
      "outputs": [
        {
          "components": [
            {
              "internalType": "uint256",
              "name": "value",
              "type": "uint256"
            },
            {
              "internalType": "int256",
              "name": "count",
              "type": "int256"
            }
          ],
          "internalType": "struct Lottery.valueHolderStruct",
          "name": "",
          "type": "tuple"
        }
      ],
      "stateMutability": "view",
      "type": "function"
    },
    {
      "inputs": [],
      "name": "getTicketValuePriceInEth",
      "outputs": [
        {
          "internalType": "uint256",
          "name": "",
          "type": "uint256"
        }
      ],
      "stateMutability": "view",
      "type": "function"
    },
    {
      "inputs": [],
      "name": "getTicketValuePriceInUSD",
      "outputs": [
        {
          "internalType": "uint256",
          "name": "",
          "type": "uint256"
        }
      ],
      "stateMutability": "view",
      "type": "function"
    },
    {
      "inputs": [
        {
          "internalType": "bytes",
          "name": "",
          "type": "bytes"
        }
      ],
      "name": "performUpkeep",
      "outputs": [],
      "stateMutability": "nonpayable",
      "type": "function"
    },
    {
      "inputs": [
        {
          "internalType": "uint256",
          "name": "requestId",
          "type": "uint256"
        },
        {
          "internalType": "uint256[]",
          "name": "randomWords",
          "type": "uint256[]"
        }
      ],
      "name": "rawFulfillRandomWords",
      "outputs": [],
      "stateMutability": "nonpayable",
      "type": "function"
    },
    {
      "stateMutability": "payable",
      "type": "receive"
    }
  ],
  "transactionHash": "0xed66dbdb0959508ce1919957ab7be568f54489babdf7ac4d18f3f428d247d79a",
  "args": [
    "8275",
    "5",
    "1",
    "0",
    "0x8103B0A8A00be2DDC778e6e7eaa21791Cd364625",
    "0x694AA1769357215DE4FAC081bf1f309aDC325306",
    "0x474e34a077df58807dbe9c96d3c009b23b3c6d0cce433e59bbf5b34f823bc56c",
    "3",
    "100000"
  ],
  "numDeployments": 13,
  "solcInputHash": "a3deccb8d8dc9fa011312bd0adcf4c40",
  "bytecode": "0x6101a06040523480156200001257600080fd5b5060405162001da438038062001da483398181016040528101906200003891906200031c565b848073ffffffffffffffffffffffffffffffffffffffff1660808173ffffffffffffffffffffffffffffffffffffffff1681525050508473ffffffffffffffffffffffffffffffffffffffff1660a08173ffffffffffffffffffffffffffffffffffffffff16815250508867ffffffffffffffff166101208167ffffffffffffffff1681525050876002819055508661014081815250508561016081815250506000600360006101000a81548160ff02191690836001811115620001015762000100620003fb565b5b02179055508373ffffffffffffffffffffffffffffffffffffffff166101808173ffffffffffffffffffffffffffffffffffffffff16815250508260c081815250508161ffff166101008161ffff16815250508063ffffffff1660e08163ffffffff16815250505050505050505050506200042a565b600080fd5b600067ffffffffffffffff82169050919050565b6200019b816200017c565b8114620001a757600080fd5b50565b600081519050620001bb8162000190565b92915050565b6000819050919050565b620001d681620001c1565b8114620001e257600080fd5b50565b600081519050620001f681620001cb565b92915050565b600073ffffffffffffffffffffffffffffffffffffffff82169050919050565b60006200022982620001fc565b9050919050565b6200023b816200021c565b81146200024757600080fd5b50565b6000815190506200025b8162000230565b92915050565b6000819050919050565b620002768162000261565b81146200028257600080fd5b50565b60008151905062000296816200026b565b92915050565b600061ffff82169050919050565b620002b5816200029c565b8114620002c157600080fd5b50565b600081519050620002d581620002aa565b92915050565b600063ffffffff82169050919050565b620002f681620002db565b81146200030257600080fd5b50565b6000815190506200031681620002eb565b92915050565b60008060008060008060008060006101208a8c03121562000342576200034162000177565b5b6000620003528c828d01620001aa565b9950506020620003658c828d01620001e5565b9850506040620003788c828d01620001e5565b97505060606200038b8c828d01620001e5565b96505060806200039e8c828d016200024a565b95505060a0620003b18c828d016200024a565b94505060c0620003c48c828d0162000285565b93505060e0620003d78c828d01620002c4565b925050610100620003eb8c828d0162000305565b9150509295985092959850929598565b7f4e487b7100000000000000000000000000000000000000000000000000000000600052602160045260246000fd5b60805160a05160c05160e05161010051610120516101405161016051610180516118fb620004a9600039600061051001526000610c6e015260008181610531015261080d015260006106c1015260006106e201526000610703015260006106a00152600061066401526000818161056501526105b901526118fb6000f3fe60806040526004361061008a5760003560e01c80636e04ff0d116100595780636e04ff0d1461012a5780636e0af28d1461016857806382acbc6614610193578063c80c28a2146101be578063ef8a9235146101e957610099565b806319aff32b146100a35780631fe543e3146100ce5780634585e33b146100f757806367f6c1161461012057610099565b3661009957610097610214565b005b6100a1610214565b005b3480156100af57600080fd5b506100b8610509565b6040516100c59190610e59565b60405180910390f35b3480156100da57600080fd5b506100f560048036038101906100f0919061100d565b610563565b005b34801561010357600080fd5b5061011e600480360381019061011991906110c4565b610623565b005b610128610214565b005b34801561013657600080fd5b50610151600480360381019061014c91906110c4565b6107fe565b60405161015f9291906111ab565b60405180910390f35b34801561017457600080fd5b5061017d610809565b60405161018a9190610e59565b60405180910390f35b34801561019f57600080fd5b506101a8610831565b6040516101b59190611232565b60405180910390f35b3480156101ca57600080fd5b506101d361089f565b6040516101e09190610e59565b60405180910390f35b3480156101f557600080fd5b506101fe6108ae565b60405161020b91906112c4565b60405180910390f35b600254600060010160003373ffffffffffffffffffffffffffffffffffffffff1673ffffffffffffffffffffffffffffffffffffffff1681526020019081526020016000206001015412610294576040517f4e46b52200000000000000000000000000000000000000000000000000000000815260040160405180910390fd5b6001808111156102a7576102a661124d565b5b600360009054906101000a900460ff1660018111156102c9576102c861124d565b5b03610300576040517f1997fa4400000000000000000000000000000000000000000000000000000000815260040160405180910390fd5b600061030a610509565b9050803414610345576040517febd6143a00000000000000000000000000000000000000000000000000000000815260040160405180910390fd5b60008001339080600181540180825580915050600190039060005260206000200160009091909190916101000a81548173ffffffffffffffffffffffffffffffffffffffff021916908373ffffffffffffffffffffffffffffffffffffffff16021790555060008060010160003373ffffffffffffffffffffffffffffffffffffffff1673ffffffffffffffffffffffffffffffffffffffff16815260200190815260200160002060010154905060008060010160003373ffffffffffffffffffffffffffffffffffffffff1673ffffffffffffffffffffffffffffffffffffffff16815260200190815260200160002060000154905060405180604001604052803483610453919061130e565b81526020016001846104659190611342565b815250600060010160003373ffffffffffffffffffffffffffffffffffffffff1673ffffffffffffffffffffffffffffffffffffffff16815260200190815260200160002060008201518160000155602082015181600101559050503373ffffffffffffffffffffffffffffffffffffffff167fd1d599fd695dd76e337d7ab238d0373013f78c6b0ae571fa655e6598c6a9709460405160405180910390a2505050565b600061055e7f00000000000000000000000000000000000000000000000000000000000000007f00000000000000000000000000000000000000000000000000000000000000006108c590919063ffffffff16565b905090565b7f000000000000000000000000000000000000000000000000000000000000000073ffffffffffffffffffffffffffffffffffffffff163373ffffffffffffffffffffffffffffffffffffffff161461061557337f00000000000000000000000000000000000000000000000000000000000000006040517f1cf993f400000000000000000000000000000000000000000000000000000000815260040161060c9291906113c7565b60405180910390fd5b61061f8282610914565b5050565b600061062d610c61565b905080156107bc576001600360006101000a81548160ff0219169083600181111561065b5761065a61124d565b5b021790555060007f000000000000000000000000000000000000000000000000000000000000000073ffffffffffffffffffffffffffffffffffffffff16635d3b1d307f00000000000000000000000000000000000000000000000000000000000000007f00000000000000000000000000000000000000000000000000000000000000007f00000000000000000000000000000000000000000000000000000000000000007f000000000000000000000000000000000000000000000000000000000000000060016040518663ffffffff1660e01b8152600401610744959493929190611468565b6020604051808303816000875af1158015610763573d6000803e3d6000fd5b505050506040513d601f19601f8201168201806040525081019061078791906114d0565b9050807ff01fb06dc49a153c8bc21e72e870b9d2ff1cdf906dbd78cb52ed6c4dce0b94c460405160405180910390a2506107f9565b806040517f0b57fcf20000000000000000000000000000000000000000000000000000000081526004016107f091906114fd565b60405180910390fd5b505050565b600060609250929050565b60007f0000000000000000000000000000000000000000000000000000000000000000905090565b610839610d7f565b600060010160003373ffffffffffffffffffffffffffffffffffffffff1673ffffffffffffffffffffffffffffffffffffffff16815260200190815260200160002060405180604001604052908160008201548152602001600182015481525050905090565b60008060000180549050905090565b6000600360009054906101000a900460ff16905090565b6000806108d183610cee565b90506000670de0b6b3a7640000856108e99190611518565b905081670de0b6b3a7640000826109009190611518565b61090a9190611589565b9250505092915050565b6000806000018054905082600081518110610932576109316115ba565b5b602002602001015161094491906115e9565b9050600080600001828154811061095e5761095d6115ba565b5b9060005260206000200160009054906101000a900473ffffffffffffffffffffffffffffffffffffffff1690506000600360006101000a81548160ff021916908360018111156109b1576109b061124d565b5b0217905550600060644760026109c79190611518565b6109d19190611589565b9050600047905060008373ffffffffffffffffffffffffffffffffffffffff1683836109fd919061161a565b604051610a099061167f565b60006040518083038185875af1925050503d8060008114610a46576040519150601f19603f3d011682016040523d82523d6000602084013e610a4b565b606091505b5050905080610a9e57838383610a61919061161a565b6040517fce96730b000000000000000000000000000000000000000000000000000000008152600401610a959291906116f3565b60405180910390fd5b60005b6000800180549050811015610b9d576000806000018281548110610ac857610ac76115ba565b5b9060005260206000200160009054906101000a900473ffffffffffffffffffffffffffffffffffffffff16905060008060010160008373ffffffffffffffffffffffffffffffffffffffff1673ffffffffffffffffffffffffffffffffffffffff1681526020019081526020016000206000018190555060008060010160008373ffffffffffffffffffffffffffffffffffffffff1673ffffffffffffffffffffffffffffffffffffffff16815260200190815260200160002060010181905550508080610b959061171c565b915050610aa1565b50600067ffffffffffffffff811115610bb957610bb8610eca565b5b604051908082528060200260200182016040528015610be75781602001602082028036833780820191505090505b50600080019080519060200190610bff929190610d99565b506001600454610c0f919061130e565b6004819055508373ffffffffffffffffffffffffffffffffffffffff167fab5517330b96d2c7c19a5a269c79770176b37d3ff9f7b3689e492a61c31c1ff760405160405180910390a250505050505050565b60008060004711905060007f000000000000000000000000000000000000000000000000000000000000000060008001805490501190506000828015610ca45750815b8015610ce3575060006001811115610cbf57610cbe61124d565b5b600360009054906101000a900460ff166001811115610ce157610ce061124d565b5b145b905080935050505090565b6000808273ffffffffffffffffffffffffffffffffffffffff1663feaf968c6040518163ffffffff1660e01b815260040160a060405180830381865afa158015610d3c573d6000803e3d6000fd5b505050506040513d601f19601f82011682018060405250810190610d6091906117d2565b5050509150506402540be40081610d77919061184d565b915050919050565b604051806040016040528060008152602001600081525090565b828054828255906000526020600020908101928215610e12579160200282015b82811115610e115782518260006101000a81548173ffffffffffffffffffffffffffffffffffffffff021916908373ffffffffffffffffffffffffffffffffffffffff16021790555091602001919060010190610db9565b5b509050610e1f9190610e23565b5090565b5b80821115610e3c576000816000905550600101610e24565b5090565b6000819050919050565b610e5381610e40565b82525050565b6000602082019050610e6e6000830184610e4a565b92915050565b6000604051905090565b600080fd5b600080fd5b610e9181610e40565b8114610e9c57600080fd5b50565b600081359050610eae81610e88565b92915050565b600080fd5b6000601f19601f8301169050919050565b7f4e487b7100000000000000000000000000000000000000000000000000000000600052604160045260246000fd5b610f0282610eb9565b810181811067ffffffffffffffff82111715610f2157610f20610eca565b5b80604052505050565b6000610f34610e74565b9050610f408282610ef9565b919050565b600067ffffffffffffffff821115610f6057610f5f610eca565b5b602082029050602081019050919050565b600080fd5b6000610f89610f8484610f45565b610f2a565b90508083825260208201905060208402830185811115610fac57610fab610f71565b5b835b81811015610fd55780610fc18882610e9f565b845260208401935050602081019050610fae565b5050509392505050565b600082601f830112610ff457610ff3610eb4565b5b8135611004848260208601610f76565b91505092915050565b6000806040838503121561102457611023610e7e565b5b600061103285828601610e9f565b925050602083013567ffffffffffffffff81111561105357611052610e83565b5b61105f85828601610fdf565b9150509250929050565b600080fd5b60008083601f84011261108457611083610eb4565b5b8235905067ffffffffffffffff8111156110a1576110a0611069565b5b6020830191508360018202830111156110bd576110bc610f71565b5b9250929050565b600080602083850312156110db576110da610e7e565b5b600083013567ffffffffffffffff8111156110f9576110f8610e83565b5b6111058582860161106e565b92509250509250929050565b60008115159050919050565b61112681611111565b82525050565b600081519050919050565b600082825260208201905092915050565b60005b8381101561116657808201518184015260208101905061114b565b60008484015250505050565b600061117d8261112c565b6111878185611137565b9350611197818560208601611148565b6111a081610eb9565b840191505092915050565b60006040820190506111c0600083018561111d565b81810360208301526111d28184611172565b90509392505050565b6111e481610e40565b82525050565b6000819050919050565b6111fd816111ea565b82525050565b60408201600082015161121960008501826111db565b50602082015161122c60208501826111f4565b50505050565b60006040820190506112476000830184611203565b92915050565b7f4e487b7100000000000000000000000000000000000000000000000000000000600052602160045260246000fd5b6002811061128d5761128c61124d565b5b50565b600081905061129e8261127c565b919050565b60006112ae82611290565b9050919050565b6112be816112a3565b82525050565b60006020820190506112d960008301846112b5565b92915050565b7f4e487b7100000000000000000000000000000000000000000000000000000000600052601160045260246000fd5b600061131982610e40565b915061132483610e40565b925082820190508082111561133c5761133b6112df565b5b92915050565b600061134d826111ea565b9150611358836111ea565b9250828201905082811215600083121683821260008412151617156113805761137f6112df565b5b92915050565b600073ffffffffffffffffffffffffffffffffffffffff82169050919050565b60006113b182611386565b9050919050565b6113c1816113a6565b82525050565b60006040820190506113dc60008301856113b8565b6113e960208301846113b8565b9392505050565b6000819050919050565b611403816113f0565b82525050565b600067ffffffffffffffff82169050919050565b61142681611409565b82525050565b600061ffff82169050919050565b6114438161142c565b82525050565b600063ffffffff82169050919050565b61146281611449565b82525050565b600060a08201905061147d60008301886113fa565b61148a602083018761141d565b611497604083018661143a565b6114a46060830185611459565b6114b16080830184611459565b9695505050505050565b6000815190506114ca81610e88565b92915050565b6000602082840312156114e6576114e5610e7e565b5b60006114f4848285016114bb565b91505092915050565b6000602082019050611512600083018461111d565b92915050565b600061152382610e40565b915061152e83610e40565b925082820261153c81610e40565b91508282048414831517611553576115526112df565b5b5092915050565b7f4e487b7100000000000000000000000000000000000000000000000000000000600052601260045260246000fd5b600061159482610e40565b915061159f83610e40565b9250826115af576115ae61155a565b5b828204905092915050565b7f4e487b7100000000000000000000000000000000000000000000000000000000600052603260045260246000fd5b60006115f482610e40565b91506115ff83610e40565b92508261160f5761160e61155a565b5b828206905092915050565b600061162582610e40565b915061163083610e40565b9250828203905081811115611648576116476112df565b5b92915050565b600081905092915050565b50565b600061166960008361164e565b915061167482611659565b600082019050919050565b600061168a8261165c565b9150819050919050565b6000819050919050565b60006116b96116b46116af84611386565b611694565b611386565b9050919050565b60006116cb8261169e565b9050919050565b60006116dd826116c0565b9050919050565b6116ed816116d2565b82525050565b600060408201905061170860008301856116e4565b6117156020830184610e4a565b9392505050565b600061172782610e40565b91507fffffffffffffffffffffffffffffffffffffffffffffffffffffffffffffffff8203611759576117586112df565b5b600182019050919050565b600069ffffffffffffffffffff82169050919050565b61178381611764565b811461178e57600080fd5b50565b6000815190506117a08161177a565b92915050565b6117af816111ea565b81146117ba57600080fd5b50565b6000815190506117cc816117a6565b92915050565b600080600080600060a086880312156117ee576117ed610e7e565b5b60006117fc88828901611791565b955050602061180d888289016117bd565b945050604061181e888289016114bb565b935050606061182f888289016114bb565b925050608061184088828901611791565b9150509295509295909350565b6000611858826111ea565b9150611863836111ea565b9250828202611871816111ea565b91507f800000000000000000000000000000000000000000000000000000000000000084146000841216156118a9576118a86112df565b5b82820584148315176118be576118bd6112df565b5b509291505056fea264697066735822122070ed89cc690f8a6f3f2b6005ee90c3e0d7c45909ca87d4d608db62b8d7d1895764736f6c63430008130033",
  "devdoc": {
    "kind": "dev",
    "methods": {},
    "version": 1
  },
  "userdoc": {
    "kind": "user",
    "methods": {},
    "version": 1
  },
  "storageLayout": {
    "storage": [
      {
        "astId": 319,
        "contract": "contracts/Lottery.sol:Lottery",
        "label": "s_participants",
        "offset": 0,
        "slot": "0",
        "type": "t_struct(MapStruct)301_storage"
      },
      {
        "astId": 323,
        "contract": "contracts/Lottery.sol:Lottery",
        "label": "s_Max_Participation_Count",
        "offset": 0,
        "slot": "2",
        "type": "t_uint256"
      },
      {
        "astId": 330,
        "contract": "contracts/Lottery.sol:Lottery",
        "label": "s_lottery_status",
        "offset": 0,
        "slot": "3",
        "type": "t_enum(Status)304"
      },
      {
        "astId": 332,
        "contract": "contracts/Lottery.sol:Lottery",
        "label": "noOfWinners",
        "offset": 0,
        "slot": "4",
        "type": "t_uint256"
      }
    ],
    "types": {
      "t_address": {
        "encoding": "inplace",
        "label": "address",
        "numberOfBytes": "20"
      },
      "t_address_payable": {
        "encoding": "inplace",
        "label": "address payable",
        "numberOfBytes": "20"
      },
      "t_array(t_address_payable)dyn_storage": {
        "base": "t_address_payable",
        "encoding": "dynamic_array",
        "label": "address payable[]",
        "numberOfBytes": "32"
      },
      "t_enum(Status)304": {
        "encoding": "inplace",
        "label": "enum Lottery.Status",
        "numberOfBytes": "1"
      },
      "t_int256": {
        "encoding": "inplace",
        "label": "int256",
        "numberOfBytes": "32"
      },
      "t_mapping(t_address,t_struct(valueHolderStruct)292_storage)": {
        "encoding": "mapping",
        "key": "t_address",
        "label": "mapping(address => struct Lottery.valueHolderStruct)",
        "numberOfBytes": "32",
        "value": "t_struct(valueHolderStruct)292_storage"
      },
      "t_struct(MapStruct)301_storage": {
        "encoding": "inplace",
        "label": "struct Lottery.MapStruct",
        "members": [
          {
            "astId": 295,
            "contract": "contracts/Lottery.sol:Lottery",
            "label": "arrAddress",
            "offset": 0,
            "slot": "0",
            "type": "t_array(t_address_payable)dyn_storage"
          },
          {
            "astId": 300,
            "contract": "contracts/Lottery.sol:Lottery",
            "label": "mapAddress",
            "offset": 0,
            "slot": "1",
            "type": "t_mapping(t_address,t_struct(valueHolderStruct)292_storage)"
          }
        ],
        "numberOfBytes": "64"
      },
      "t_struct(valueHolderStruct)292_storage": {
        "encoding": "inplace",
        "label": "struct Lottery.valueHolderStruct",
        "members": [
          {
            "astId": 289,
            "contract": "contracts/Lottery.sol:Lottery",
            "label": "value",
            "offset": 0,
            "slot": "0",
            "type": "t_uint256"
          },
          {
            "astId": 291,
            "contract": "contracts/Lottery.sol:Lottery",
            "label": "count",
            "offset": 0,
            "slot": "1",
            "type": "t_int256"
          }
        ],
        "numberOfBytes": "64"
      },
      "t_uint256": {
        "encoding": "inplace",
        "label": "uint256",
        "numberOfBytes": "32"
      }
    }
  }
}